:020000040800F2
:100000000028002081190008B5180008BB18000856
:10001000C1180008C7180008CD180008000000002B
:10002000000000000000000000000000D3180008DD
:10003000DF18000800000000EB180008F71800089F
:10004000C9190008C9190008C9190008C919000808
:10005000C9190008C9190008C9190008C9190008F8
:10006000C9190008C9190008C9190008C9190008E8
:10007000C9190008C9190008C9190008C9190008D8
:10008000C9190008C9190008C9190008C9190008C8
:10009000C9190008C9190008C9190008C9190008B8
:1000A000C9190008C9190008C9190008C9190008A8
:1000B00005190008C919000800000000C919000846
:1000C000C91900080000000000000000C91900085C
:1000D00000000000C9190008C9190008000000004C
:1000E000C9190008C9190008C91900080000000052
:1000F0000000000000000000000000000000000000
:0C01000000000000000000005FF808F1A3
:10010C0010B5054C237833B9044B13B10448AFF345
:10011C0000800123237010BD50000020000000005F
:10012C00F82F000808B5034B1BB103490348AFF384
:10013C00008008BD0000000054000020F82F0008CB
:10014C0080B582B000AF7860012201219F4801F098
:10015C0038FF012202219D4801F033FF01220421C6
:10016C009A4801F02EFF01220821984801F029FF3E
:10017C0001221021954801F024FF012220219348EF
:10018C0001F01FFF01224021904801F01AFF7B680B
:10019C00092B00F2168101A252F823F0D1010008BC
:1001AC000F02000825020008590200088D02000801
:1001BC00B7020008EB0200082903000849030008F5
:1001CC009103000800220121804801F0FAFE002270
:1001DC0002217E4801F0F5FE002204217B4801F04B
:1001EC00F0FE00220821794801F0EBFE00221021DC
:1001FC00764801F0E6FE00222021744801F0E1FE71
:10020C00E0E000220221714801F0DBFE0022042113
:10021C006E4801F0D6FED5E0002201216B4801F0BA
:10022C00D0FE00220221694801F0CBFE00220821F9
:10023C00664801F0C6FE00221021644801F0C1FEA0
:10024C0000224021614801F0BCFEBBE000220121EC
:10025C005E4801F0B6FE002202215C4801F0B1FEBE
:10026C0000220421594801F0ACFE00220821574815
:10027C0001F0A7FE00224021544801F0A2FEA1E0AB
:10028C0000220221514801F09CFE002204214F481B
:10029C0001F097FE002220214C4801F092FE002232
:1002AC0040214A4801F08DFE8CE000220121474894
:1002BC0001F087FE00220421444801F082FE002256
:1002CC000821424801F07DFE002220213F4801F028
:1002DC0078FE002240213D4801F073FE72E00022BE
:1002EC0001213A4801F06DFE00220421374801F04B
:1002FC0068FE00220821354801F063FE002210211F
:10030C00324801F05EFE00222021304801F059FEF7
:10031C00002240212D4801F054FE53E0002201211F
:10032C002A4801F04EFE00220221284801F049FE25
:10033C0000220421254801F044FE43E00022012163
:10034C00224801F03EFE00220221204801F039FE35
:10035C00002204211D4801F034FE002208211B4814
:10036C0001F02FFE00221021184801F02AFE002275
:10037C002021164801F025FE00224021134801F0EF
:10038C0020FE1FE000220121104801F01AFE00227D
:10039C0002210E4801F015FE002204210B4801F049
:1003AC0010FE00220821094801F00BFE002220213A
:1003BC00064801F006FE00224021044801F001FE2F
:1003CC0000E000BF00BF0837BD4680BD000C0140F7
:1003DC0080B582B000AF786001228021B74801F06F
:1003EC00F0FD01224FF48071B44801F0EAFD0122C6
:1003FC004FF40071B14801F0E4FD01224FF480612B
:10040C00AE4801F0DEFD01224FF40061AB4801F073
:10041C00D8FD01224FF48051A84801F0D2FD0122F1
:10042C004FF40051A54801F0CCFD7B68092B00F27C
:10043C003F8101A252F823F06D040008B5040008B6
:10044C00CF0400080B0500084705000879050008D3
:10045C00B5050008FD050008210600087506000812
:10046C0000228021954801F0ACFD00224FF48071F0
:10047C00924801F0A6FD00224FF400718F4801F064
:10048C00A0FD00224FF480618C4801F09AFD0022FF
:10049C004FF40061894801F094FD00224FF4805123
:1004AC00864801F08EFD04E100224FF480718348F0
:1004BC0001F087FD00224FF40071804801F081FDAE
:1004CC00F7E0002280217D4801F07BFD00224FF4F3
:1004DC0080717A4801F075FD00224FF480617748F5
:1004EC0001F06FFD00224FF40061744801F069FDCA
:1004FC0000224FF40051714801F063FDD9E0002255
:10050C0080216E4801F05DFD00224FF480716B4834
:10051C0001F057FD00224FF40071684801F051FDC5
:10052C0000224FF48061654801F04BFD00224FF42E
:10053C000051624801F045FDBBE000224FF4807190
:10054C005E4801F03EFD00224FF400715B4801F063
:10055C0038FD00224FF48051584801F032FD002242
:10056C004FF40051554801F02CFDA2E000228021EF
:10057C00524801F026FD00224FF400714F4801F063
:10058C0020FD00224FF480614C4801F01AFD00223E
:10059C004FF48051494801F014FD00224FF40051F2
:1005AC00464801F00EFD84E000228021434801F012
:1005BC0008FD00224FF40071404801F002FD0022BA
:1005CC004FF480613D4801F0FCFC00224FF40061C7
:1005DC003A4801F0F6FC00224FF48051374801F004
:1005EC00F0FC00224FF40051344801F0EAFC60E0CA
:1005FC0000228021314801F0E4FC00224FF480718C
:10060C002E4801F0DEFC00224FF400712B4801F063
:10061C00D8FC4EE000228021284801F0D2FC0022B8
:10062C004FF48071254801F0CCFC00224FF400718E
:10063C00224801F0C6FC00224FF480611F4801F0F3
:10064C00C0FC00224FF400611C4801F0BAFC0022EF
:10065C004FF48051194801F0B4FC00224FF40051C2
:10066C00164801F0AEFC24E000228021134801F072
:10067C00A8FC00224FF48071104801F0A2FC00226B
:10068C004FF400710D4801F09CFC00224FF4806186
:10069C000A4801F096FC00224FF48051074801F003
:1006AC0090FC00224FF40051044801F08AFC00E059
:1006BC0000BF00BF0837BD4680BD00BF000C014025
:1006CC0080B400AF064B1B68012B04D1044B0022F5
:1006DC001A60012300E000231846BD4680BC704719
:1006EC006C00002080B400AF064B1B68012B04D1BA
:1006FC00044B00221A60012300E000231846BD467B
:10070C0080BC70477000002080B400AF064B1B68A3
:10071C00012B04D1044B00221A60012300E00023BA
:10072C001846BD4680BC70477400002080B500AFF1
:10073C006B4B1B686B4A13606B4B1B68684A1360EE
:10074C004FF48071694801F025FC03461A46664B4C
:10075C001A60674B1B68674A1360674B1B68644AD7
:10076C0013604FF40071614801F014FC03461A4603
:10077C00614B1A60614B1B68614A1360614B1B68CB
:10078C005E4A13604FF48061584801F003FC034645
:10079C001A465C4B1A60534B1A68514B1B689A42B1
:1007AC002FD14F4B1A68504B1B689A4229D1564B8C
:1007BC001A684D4B1B689A420FD04B4B1B68524A20
:1007CC001360494B1B68002B1BD1504B4FF4FA7232
:1007DC001A604F4B01221A6013E04C4B1B68013B13
:1007EC004A4A1360494B1B68002B0AD1474B4FF404
:1007FC00FA721A603C4B1B68002B02D1444B01224D
:10080C001A603C4B1A683A4B1B689A422FD1384BF2
:10081C001A68394B1B689A4229D13E4B1A68364BE1
:10082C001B689A420FD0344B1B683A4A1360324B08
:10083C001B68002B1BD1354B4FF4FA721A60364BE8
:10084C0001221A6013E0314B1B68013B2F4A1360E5
:10085C002E4B1B68002B0AD12C4B4FF4FA721A60EA
:10086C00254B1B68002B02D12B4B01221A60244B09
:10087C001A68224B1B689A422FD1204B1A68214BC5
:10088C001B689A4229D1254B1A681E4B1B689A4249
:10089C000FD01C4B1B68214A13601A4B1B68002B92
:1008AC001BD11A4B4FF4FA721A601D4B01221A60BD
:1008BC0013E0164B1B68013B144A1360134B1B6867
:1008CC00002B0AD1114B4FF4FA721A600D4B1B68B6
:1008DC00002B02D1124B01221A6000BF80BD00BF59
:1008EC000400002000000020080000200008014047
:1008FC00140000201000002018000020240000200C
:10090C0020000020280000200C00002030000020D7
:10091C006C0000201C000020700000202C00002027
:10092C007400002080B582B002AF534B1B68002BC3
:10093C0002D0012B50D09BE0504B1B68504A1168E1
:10094C00504A1268184600F0EBFA4C4B1A684C4BA4
:10095C001B6801930623009317230521162000F032
:10096C00F5FC01224FF40061474801F02AFB0122FB
:10097C004FF48051444801F024FB01224FF4005104
:10098C00414801F01EFB01224FF480413E4801F02A
:10099C0018FB3E4B00221A603D4B00221A60384B6C
:1009AC001B68364A12681146184600F083FBFFF7A5
:1009BC0087FE0346012B58D100224FF48051324858
:1009CC0001F0FFFA0120FFF703FD2B4B01221A6007
:1009DC00642000F0A1FF48E02E4B1B68012B19D1BD
:1009EC0000F010FC2C4B1B68013B2B4A13602A4B6C
:1009FC001B68002B0BD1214B1B68224A1168204A23
:100A0C001268184600F0CCFC234B04221A60192003
:100A1C0000F082FFFFF754FE0346012B27D1164B43
:100A2C0002221A6001224FF40061174801F0C9FA42
:100A3C0000224FF48051144801F0C3FA01224FF404
:100A4C000051114801F0BDFA01224FF480410E48CB
:100A5C0001F0B7FA0220FFF7BBFC00F07BFA00F0C4
:100A6C00D1FA322000F058FF01E000BF00E000BFD7
:100A7C0000BFBD4680BD00BF8400002038000020B0
:100A8C003C0000204000002000080140B400002081
:100A9C00B8000020C00000203400002080B500AF5A
:100AAC00714B1B68042B00F09380042B00F3DA804D
:100ABC00022B02D0032B46D0D4E06C4B1B68012BCD
:100ACC000AD104216A4801F094FA2021684801F007
:100ADC0090FA322000F020FFFFF7F2FD0346012BC5
:100AEC0024D1614B03221A6001224FF4006160484B
:100AFC0001F067FA00224FF480515D4801F061FA71
:100B0C0001224FF400515A4801F05BFA01224FF4D4
:100B1C008041574801F055FA0320FFF759FC00F0CB
:100B2C0019FA00F06FFA322000F0F6FEFFF7DAFD4A
:100B3C000346012B40F091804B4B08221A60192080
:100B4C0000F0EAFE89E0494B1B68012B0AD1102109
:100B5C00474801F04EFA8021454801F04AFA32200C
:100B6C0000F0DAFEFFF7ACFD0346012B24D13E4B1F
:100B7C0004221A6001224FF400613D4801F021FA71
:100B8C0000224FF480513A4801F01BFA01224FF435
:100B9C000051374801F015FA01224FF480413448D6
:100BAC0001F00FFA0420FFF713FC00F0D3F900F06A
:100BBC0029FA322000F0B0FEFFF794FD0346012B1A
:100BCC004DD1294B0A221A60192000F0A5FE46E0EF
:100BDC00264B1B68012B0AD10821254801F009FA84
:100BEC004021234801F005FA322000F095FEFFF772
:100BFC0067FD0346012B24D11B4B01221A600122F5
:100C0C004FF400611A4801F0DCF900224FF48051D6
:100C1C00174801F0D6F901224FF40051144801F0A5
:100C2C00D0F901224FF48041114801F0CAF901209A
:100C3C00FFF7CEFB00F08EF900F0E4F9192000F07C
:100C4C006BFEFFF74FFD0346012B0AD1064B0C221E
:100C5C001A60192000F060FE03E000BF02E000BF44
:100C6C0000E000BF00BF80BD84000020C000002059
:100C7C000008014080B500AF204B1B680D2B26D01F
:100C8C000D2B39DC092B02D00B2B10D034E01C4B74
:100C9C001B681B4A136000F05DF900F0B3F9194BA7
:100CAC001B68012B23D1154B00221A601FE0164B39
:100CBC001B68154A136000F04DF900F0A3F9114BB5
:100CCC001B68012B15D10D4B00221A6011E00F4B44
:100CDC001B680E4A136000F03DF900F093F9094BC4
:100CEC001B68012B07D1054B00221A6003E000BFE3
:100CFC0002E000BF00E000BF00BF80BD8400002008
:100D0C0038000020C00000203C00002040000020E3
:100D1C0080B500AF764B1B680C2B00F099800C2B28
:100D2C0000F3E380082B02D00A2B49D0DDE0714B95
:100D3C001B68012B19D1704B1B6801336E4A136071
:100D4C006E4800F0C1FA6C4B1B68022B0AD10421CF
:100D5C006B4801F04EF92021694801F04AF9664BC5
:100D6C0000221A60192000F0D7FDFFF7BBFC0346E8
:100D7C00012B13D1634B1B68062B03DD614B1B68E6
:100D8C00002B0BDD5F4B1B6801335E4A13605D4B20
:100D9C001B68072B02D15B4B01221A60594B1B6855
:100DAC00184600F0C3F9FFF7AFFC0346012B40F0E7
:100DBC0097804F4B09221A60642000F0ADFD8FE044
:100DCC004C4B1B68012B19D14F4B1B6801334E4AFE
:100DDC0013604E4800F078FA4B4B1B68022B0AD17B
:100DEC001021474801F005F98021454801F001F92F
:100DFC00454B00221A60192000F08EFDFFF772FCA3
:100E0C000346012B13D1424B1B68062B03DD404BD1
:100E1C001B68002B0BDD3E4B1B6801333C4A1360F7
:100E2C003B4B1B68072B02D1394B01221A60384B04
:100E3C001B68184600F09EF9FFF766FC0346012B71
:100E4C0050D12B4B0B221A60642000F065FD49E059
:100E5C00284B1B68012B19D12E4B1B6801332D4AD3
:100E6C0013602D4800F030FA2A4B1B68022B0AD174
:100E7C000821234801F0BDF84021214801F0B9F8C0
:100E8C00244B00221A60192000F046FDFFF72AFCC3
:100E9C000346012B13D1214B1B68062B03DD1F4B83
:100EAC001B68002B0BDD1D4B1B6801331B4A1360A9
:100EBC001A4B1B68072B02D1184B01221A60174BD7
:100ECC001B68184600F07AF9FFF71EFC0346012B4D
:100EDC000AD1074B0D221A60642000F01DFD03E0BF
:100EEC0000BF02E000BF00E000BF00BF80BD00BF3C
:100EFC0084000020C0000020780000209C0000200E
:100F0C0000080140380000207C000020AC000020CC
:100F1C003C00002080000020A400002040000020A5
:100F2C0080B485B000AFF860B9607A60064AFB689F
:100F3C001360064ABB681360054A7B68136000BFE8
:100F4C001437BD4680BC7047380000203C000020A0
:100F5C004000002080B500AF00222021074801F09E
:100F6C0030F800228021054801F02BF800224021A6
:100F7C00024801F026F800BF80BD00BF0008014008
:100F8C0080B500AF01222021074801F01AF8002299
:100F9C008021054801F015F800224021024801F09B
:100FAC0010F800BF80BD00BF0008014080B500AF45
:100FBC0000222021074801F004F801228021054875
:100FCC0000F0FFFF00224021024800F0FAFF00BFB2
:100FDC0080BD00BF0008014080B500AF0022202179
:100FEC00074800F0EEFF00228021054800F0E9FFE1
:100FFC0001224021024800F0E4FF00BF80BD00BF89
:10100C000008014080B500AF00220421074800F021
:10101C00D8FF00221021054800F0D3FF0022082140
:10102C00024800F0CEFF00BF80BD00BF00080140A9
:10103C0080B500AF01220421074800F0C2FF002256
:10104C001021054800F0BDFF00220821024800F0E5
:10105C00B8FF00BF80BD00BF0008014080B500AFE5
:10106C0000220421074800F0ACFF012210210548A2
:10107C0000F0A7FF00220821024800F0A2FF00BFE9
:10108C0080BD00BF0008014080B500AF00220421E4
:10109C00074800F096FF00221021054800F091FF50
:1010AC0001220821024800F08CFF00BF80BD00BF68
:1010BC000008014080B483B000AF786039607B6871
:1010CC00184A82FB03129210DB17D31A164A1360CC
:1010DC007968144B83FB01239A10CB17D21A134651
:1010EC009B0013445B00CA1A0F4B5A603B680D4AB5
:1010FC0082FB03129210DB17D31A0B4A93603968E8
:10110C00084B83FB01239A10CB17D21A13469B0072
:10111C0013445B00CA1A044BDA6000BF0C37BD469F
:10112C0080BC7047676666668C00002080B483B014
:10113C0000AF78607B680D4A82FB03129210DB17BC
:10114C00D31A0B4A13607968084B83FB01239A105E
:10115C00CB17D21A13469B0013445B00CA1A044BDC
:10116C005A6000BF0C37BD4680BC70476766666628
:10117C009C00002080B483B000AF78607B680D4A7F
:10118C0082FB03129210DB17D31A0B4A1360796897
:10119C00084B83FB01239A10CB17D21A13469B00E2
:1011AC0013445B00CA1A044B5A6000BF0C37BD468F
:1011BC0080BC704767666666AC00002080B483B064
:1011CC0000AF78607B680D4A82FB03129210DB172C
:1011DC00D31A0B4A13607968084B83FB01239A10CE
:1011EC00CB17D21A13469B0013445B00CA1A044B4C
:1011FC005A6000BF0C37BD4680BC70476766666698
:10120C00A400002080B500AF2C4B1B68002B02D033
:10121C00012B23D045E000224FF40061284800F058
:10122C00D0FE01224FF48051254800F0CAFE002266
:10123C004FF40051224800F0C4FE01224FF48041CB
:10124C001F4800F0BEFE1F4B1B681846FFF7C0F886
:10125C001C4B9B681846FEF773FF22E001224FF4EB
:10126C000061174800F0ADFE00224FF48051144885
:10127C0000F0A7FE01224FF40051114800F0A1FE2E
:10128C0000224FF480410E4800F09BFE0D4B5B6832
:10129C001846FFF79DF80B4BDB681846FEF750FF1E
:1012AC0000BF064B1B680133002B03F00103B8BFD2
:1012BC005B42024A136000BF80BD00BF8800002063
:1012CC00000801408C00002080B582B000AF78602F
:1012DC001C4B1B68002B02D0012B12D024E00022E7
:1012EC004FF40051184800F06CFE01224FF480417D
:1012FC00154800F066FE7B681B681846FEF720FF59
:10130C0012E001224FF400510F4800F05AFE002267
:10131C004FF480410C4800F054FE7B6804331B688A
:10132C001846FEF70DFF00BF064B1B680133002B60
:10133C0003F00103B8BF5B42024A136000BF0837D9
:10134C00BD4680BD880000200008014080B485B0F7
:10135C0000AFF860B9607A603B600B4AFB681360C1
:10136C000A4A3B6813600A4AFB691360094A7B68A6
:10137C001360094ABB681360084ABB69136000BF5D
:10138C001437BD4680BC7047D8000020C800002030
:10139C00D4000020CC000020D0000020C40000208D
:1013AC0080B584B000AFF860B9607A60804B1B6880
:1013BC00002B09DC7F4B1B68172B05D17C4ABB68C3
:1013CC0013607C4B18221A60794B1B68002B09DCCC
:1013DC00784B1B68182B05D1754AFB681360754B4D
:1013EC0016221A60724B1B68002B09DC714B1B68B0
:1013FC00162B05D16E4A7B6813606E4B17221A6050
:10140C006D4B1B68002B09DC6C4B1B68162B05D134
:10141C00694A7B681360694B17221A60664B1B681C
:10142C00002B09DC654B1B68172B05D1624ABB6886
:10143C001360624B18221A605F4B1B68002B09DC8F
:10144C005E4B1B68182B05D15B4AFB6813605B4B2A
:10145C0016221A60564B1B685A1E55490A60564A8A
:10146C001268511E5448016011461846FFF722FEBF
:10147C00534B1B68062B06D1FFF7F0FD514B1B6835
:10148C000133504A13604E4B1B68072B06D1FFF7F4
:10149C00FBFD4C4B1B6801334A4A1360484B1B68DD
:1014AC00052B06D1FFF7C4FD464B1B680133454A9B
:1014BC001360444B1B687A689A4209D1404B1B68F5
:1014CC00062B05D13E4B07221A603E4B00221A60B8
:1014DC003C4B1B68BA689A4209D1394B1B68072BE5
:1014EC0005D1374B05221A60364B00221A60354B5A
:1014FC001B68FA689A4209D1314B1B68052B05D140
:10150C002F4B06221A602F4B00221A602E4B1B68A1
:10151C00052B06D1FFF734FD2C4B1B6801332B4AEE
:10152C001360294B1B68072B06D1FFF755FD274B82
:10153C001B680133254A1360234B1B68062B06D10D
:10154C00FFF734FD214B1B680133204A13601F4BFE
:10155C001B68FA689A4209D11B4B1B68052B05D1F5
:10156C00194B06221A60194B00221A60174B1B6884
:10157C007A689A4209D1144B1B68062B05D1124B81
:10158C0007221A60114B00221A60104B1B68BA68B4
:10159C009A4209D10C4B1B68072B05D10A4B05222B
:1015AC001A600A4B00221A6000BF1037BD4680BD7E
:1015BC00D4000020C8000020CC000020D80000205F
:1015CC00C4000020B8000020D0000020B40000208F
:1015DC0080B500AF00F0F4F900F012F800F098F8C4
:1015EC0000F04AF8054801F049F9FFF79BF9FFF7BD
:1015FC0055FAFFF78DFBFFF73DFBF6E7DC0000200B
:10160C0080B590B000AF07F11803282200211846CE
:10161C0001F0E4FC3B1D00221A605A609A60DA600B
:10162C001A610223BB610123BB621023FB620023FE
:10163C007B6307F11803184600F0F4FC0346002BFB
:10164C0001D000F0D5F80F237B600023BB60002392
:10165C00FB6000233B6100237B613B1D002118468E
:10166C0000F060FF0346002B01D000F0C1F800BF72
:10167C004037BD4680BD000080B586B000AF07F195
:10168C00080300221A605A609A60DA603B46002216
:10169C001A605A601D4B4FF080421A601B4B41F68A
:1016AC003F725A60194B00229A60184B0922DA607B
:1016BC00164B00221A61154B00229A61134801F057
:1016CC008DF80346002B01D000F092F84FF48053B4
:1016DC00BB6007F1080319460C4801F00BFA0346EE
:1016EC00002B01D000F084F800233B6000237B60CA
:1016FC003B461946054801F0E3FB0346002B01D09D
:10170C0000F076F800BF1837BD4680BDDC00002025
:10171C0080B586B000AF07F1080300221A605A604A
:10172C009A60DA60294B9B69284A43F00403936161
:10173C00264B9B6903F004037B607B68234B9B69FE
:10174C00224A43F008039361204B9B6903F0080382
:10175C003B603B68002247F6FC011D4800F031FC61
:10176C00002243F6FF711B4800F02BFC47F6FC03EC
:10177C00BB600123FB6000233B6102237B6107F10B
:10178C0008031946124800F08BFA43F6FF73BB604E
:10179C000123FB6000233B6102237B6107F10803FB
:1017AC0019460C4800F07CFA4FF4E063BB60002350
:1017BC00FB6001233B6107F108031946044800F064
:1017CC006FFA00BF1837BD4680BD00BF0010024045
:1017DC0000080140000C014080B582B000AF786079
:1017EC0000F0AEF8FEF7A2FF00BF0837BD4680BD83
:1017FC0080B400AF72B600BFFEE7000080B485B0C5
:10180C0000AF154B9B69144A43F001039361124BD3
:10181C009B6903F00103BB60BB680F4BDB690E4A8D
:10182C0043F08053D3610C4BDB6903F080537B6036
:10183C007B680A4B5B68FB60FB6823F0E063FB6032
:10184C00FB6843F08063FB60044AFB68536000BF95
:10185C001437BD4680BC70470010024000000140A8
:10186C0080B584B000AF78607B681B68B3F1804FA3
:10187C0013D10C4BDB690B4A43F00103D361094BC9
:10188C00DB6903F00103FB60FB68002200211C20D4
:10189C0000F0CFF91C2000F0E8F900BF1037BD466E
:1018AC0080BD00BF0010024080B400AFFEE780B4E2
:1018BC0000AFFEE780B400AFFEE780B400AFFEE7F8
:1018CC0080B400AFFEE780B400AF00BFBD4680BC63
:1018DC00704780B400AF00BFBD4680BC704780B479
:1018EC0000AF00BFBD4680BC704780B500AF00F0B4
:1018FC00ADF800BF80BD000080B500AF024801F01C
:10190C0009F800BF80BD00BFDC00002080B400AF30
:10191C0000BFBD4680BC704780B483B000AF786018
:10192C00054A7B681360054B00221A6000BF0C3718
:10193C00BD4680BC704700BFBC000020C00000202A
:10194C0080B400AF094B1B68002B0BDD074B1B68E9
:10195C00013B064A1360054B1B68002B02DC044B51
:10196C0001221A6000BFBD4680BC7047BC0000203D
:10197C00C0000020FFF7CAFF0B480C490C4A00239B
:10198C0002E0D458C4500433C4188C42F9D3094A29
:10199C00094C002301E013600432A242FBD301F096
:1019AC00F9FAFFF715FE70470000002050000020E8
:1019BC003C3000085000002028010020FEE7000009
:1019CC0080B500AF084B1B68074A43F01003136047
:1019DC00032000F023F90F2000F008F8FFF70EFFAA
:1019EC000023184680BD00BF0020024080B582B0A5
:1019FC0000AF7860124B1A68124B1B7819464FF4E3
:101A0C007A73B3FBF1F3B2FBF3F3184600F03BF936
:101A1C000346002B01D001230EE07B680F2B0AD864
:101A2C00002279684FF0FF3000F003F9064A7B681A
:101A3C001360002300E0012318460837BD4680BD23
:101A4C00440000204C0000204800002080B400AF6F
:101A5C00054B1B781A46054B1B681344034A13604D
:101A6C0000BFBD4680BC70474C0000202401002004
:101A7C0080B400AF024B1B681846BD4680BC704753
:101A8C002401002080B485B000AF78607B6803F03F
:101A9C000703FB600C4BDB68BB60BA684FF6FF03B7
:101AAC001340BB60FB681A02BB68134343F0BF636F
:101ABC0043F40033BB60044ABB68D36000BF1437E7
:101ACC00BD4680BC704700BF00ED00E080B400AFA5
:101ADC00044BDB681B0A03F007031846BD4680BCA9
:101AEC00704700BF00ED00E080B483B000AF034648
:101AFC00FB7197F90730002B0BDBFB7903F01F020E
:101B0C00064997F907305B09012000FA02F241F807
:101B1C00232000BF0C37BD4680BC704700E100E0BD
:101B2C0080B483B000AF03463960FB7197F907307E
:101B3C00002B0ADB3B68DAB20C4997F9073012012B
:101B4C00D2B20B4483F800230AE03B68DAB20849AE
:101B5C00FB7903F00F03043B1201D2B20B441A764B
:101B6C0000BF0C37BD4680BC704700BF00E100E0F1
:101B7C0000ED00E080B489B000AFF860B9607A6025
:101B8C00FB6803F00703FB61FB69C3F10703042B3C
:101B9C0028BF0423BB61FB690433062B02D9FB6904
:101BAC00033B00E000237B614FF0FF32BB6902FA7C
:101BBC0003F3DA43BB681A407B699A404FF0FF315C
:101BCC007B6901FA03F3D9437B680B401343184636
:101BDC002437BD4680BC704780B582B000AF7860BA
:101BEC007B68013BB3F1807F01D301230FE00A4AEC
:101BFC007B68013B53600F214FF0FF30FFF790FFE4
:101C0C00054B00229A60044B07221A6000231846E9
:101C1C000837BD4680BD00BF10E000E080B582B043
:101C2C0000AF78607868FFF72DFF00BF0837BD461E
:101C3C0080BD80B586B000AF0346B9607A60FB7397
:101C4C0000237B61FFF742FF78617A68B968786995
:101C5C00FFF790FF024697F90F3011461846FFF731
:101C6C005FFF00BF1837BD4680BD80B582B000AFA6
:101C7C000346FB7197F907301846FFF735FF00BF95
:101C8C000837BD4680BD80B582B000AF78607868FB
:101C9C00FFF7A2FF034618460837BD4680BD00007B
:101CAC0080B48BB000AF7860396000237B62002376
:101CBC003B6248E101227B6A02FA03F3FB613B6859
:101CCC001B68FA691340BB61BA69FB699A4240F020
:101CDC0037813B685B68A34A93425ED0A14A93422A
:101CEC0075D8A14A934258D09F4A93426FD89F4AC5
:101CFC00934252D09D4A934269D89D4A93424CD00C
:101D0C009B4A934263D89B4A934246D0994A93424A
:101D1C005DD8122B2AD8122B59D801A252F823F0D5
:101D2C00A71D0008811D0008931D0008D51D000883
:101D3C00DB1D0008DB1D0008DB1D0008DB1D000897
:101D4C00DB1D0008DB1D0008DB1D0008DB1D000887
:101D5C00DB1D0008DB1D0008DB1D0008DB1D000877
:101D6C00DB1D0008891D00089D1D0008824A934256
:101D7C0013D02CE03B68DB683B6229E03B68DB68F6
:101D8C0004333B6224E03B68DB6808333B621FE0B2
:101D9C003B68DB680C333B621AE03B689B68002BAA
:101DAC0002D104233B6213E03B689B68012B05D1F5
:101DBC0008233B627B68FA691A6109E008233B62DD
:101DCC007B68FA695A6103E000233B6200E000BFC4
:101DDC00BB69FF2B01D87B6801E07B6804337B6116
:101DEC00BB69FF2B02D87B6A9B0002E07B6A083B35
:101DFC009B003B617B691A680F213B6901FA03F375
:101E0C00DB431A40396A3B6901FA03F31A437B69D5
:101E1C001A603B685B6803F08053002B00F09080E5
:101E2C00564B9B69554A43F001039361534B9B6995
:101E3C0003F00103BB60BB68514A7B6A9B08023309
:101E4C0052F82330FB607B6A03F003039B000F22E4
:101E5C0002FA03F3DB43FA681340FB607B68494AE0
:101E6C0093420DD07B68484A934207D07B68474A1F
:101E7C00934201D1022304E0032302E0012300E09A
:101E8C0000237A6A02F0030292009340FA6813432B
:101E9C00FB603B497B6A9B080233FA6841F82320BC
:101EAC003B685B6803F48013002B06D0384B9A68B0
:101EBC003749BB6913438B6006E0354B9A68BB69A5
:101ECC00DB43334913408B603B685B6803F40013BE
:101EDC00002B06D02E4BDA682D49BB691343CB601F
:101EEC0006E02B4BDA68BB69DB4329491340CB6016
:101EFC003B685B6803F40033002B06D0244B5A6814
:101F0C002349BB6913434B6006E0214B5A68BB69FC
:101F1C00DB431F4913404B603B685B6803F4803321
:101F2C00002B06D01A4B1A681949BB6913430B6076
:101F3C0006E0174B1A68BB69DB43154913400B606D
:101F4C007B6A01337B623B681A687B6A22FA03F373
:101F5C00002B7FF4AFAE00BF00BF2C37BD4680BC5A
:101F6C00704700BF0000321000003110000022103A
:101F7C00000021100000121000001110001002408F
:101F8C000000014000080140000C0140001001401D
:101F9C000004014080B485B000AF78600B467B80B4
:101FAC007B689A687B881340002B02D00123FB735B
:101FBC0001E00023FB73FB7B18461437BD4680BC45
:101FCC00704780B483B000AF78600B467B801346BB
:101FDC007B707B78002B03D07A887B681A6103E0D6
:101FEC007B881A047B681A6100BF0C37BD4680BC25
:101FFC00704780B485B000AF78600B467B807B68FF
:10200C00DB68FB607A88FB6813401A04FB68D943D1
:10201C007B880B401A437B681A6100BF1437BD469E
:10202C0080BC704780B586B000AF78607B68002BB1
:10203C0001D101236CE27B681B6803F00103002BC8
:10204C0000F08780924B5B6803F00C03042B0CD0E0
:10205C008F4B5B6803F00C03082B12D18C4B5B6825
:10206C0003F48033B3F5803F0BD1894B1B6803F429
:10207C000033002B6CD07B685B68002B68D101238C
:10208C0046E27B685B68B3F5803F06D1804B1B68EA
:10209C007F4A43F4803313602EE07B685B68002B2F
:1020AC000CD17B4B1B687A4A23F480331360784B3A
:1020BC001B68774A23F4802313601DE07B685B6800
:1020CC00B3F5A02F0CD1724B1B68714A43F48023DB
:1020DC0013606F4B1B686E4A43F4803313600BE044
:1020EC006B4B1B686A4A23F480331360684B1B6884
:1020FC00674A23F4802313607B685B68002B13D042
:10210C00FFF7B6FC386108E0FFF7B2FC02463B690A
:10211C00D31A642B01D90323FAE15D4B1B6803F43A
:10212C000033002BF0D014E0FFF7A2FC386108E07C
:10213C00FFF79EFC02463B69D31A642B01D903239B
:10214C00E6E1534B1B6803F40033002BF0D100E0A5
:10215C0000BF7B681B6803F00203002B63D04C4B61
:10216C005B6803F00C03002B0BD0494B5B6803F04E
:10217C000C03082B1CD1464B5B6803F48033002BFB
:10218C0016D1434B1B6803F00203002B05D07B6870
:10219C001B69012B01D00123BAE13D4B1B6823F0D5
:1021AC00F8027B685B69DB00394913430B603AE04A
:1021BC007B681B69002B20D0364B01221A60FFF77D
:1021CC0057FC386108E0FFF753FC02463B69D31A11
:1021DC00022B01D903239BE12D4B1B6803F0020357
:1021EC00002BF0D02A4B1B6823F0F8027B685B694C
:1021FC00DB00274913430B6015E0264B00221A60C5
:10220C00FFF736FC386108E0FFF732FC02463B6909
:10221C00D31A022B01D903237AE11D4B1B6803F05F
:10222C000203002BF0D17B681B6803F00803002B22
:10223C003AD07B689B69002B19D0174B01221A608E
:10224C00FFF716FC386108E0FFF712FC02463B6909
:10225C00D31A022B01D903235AE10D4B5B6A03F00D
:10226C000203002BF0D0012000F09AFA1CE00A4B7C
:10227C0000221A60FFF7FCFB38610FE0FFF7F8FB58
:10228C0002463B69D31A022B08D9032340E100BF55
:10229C000010024000004242800442429E4B5B6AA6
:1022AC0003F00203002BE9D17B681B6803F00403E5
:1022BC00002B00F0A6800023FB75974BDB6903F025
:1022CC008053002B0DD1944BDB69934A43F0805320
:1022DC00D361914BDB6903F08053BB60BB68012376
:1022EC00FB758E4B1B6803F48073002B18D18B4B42
:1022FC001B688A4A43F480731360FFF7B9FB38619B
:10230C0008E0FFF7B5FB02463B69D31A642B01D9F1
:10231C000323FDE0814B1B6803F48073002BF0D08A
:10232C007B68DB68012B06D17B4B1B6A7A4A43F036
:10233C00010313622DE07B68DB68002B0CD1764B1C
:10234C001B6A754A23F001031362734B1B6A724AB2
:10235C0023F0040313621CE07B68DB68052B0CD1B3
:10236C006D4B1B6A6C4A43F0040313626A4B1B6A85
:10237C00694A43F0010313620BE0674B1B6A664A20
:10238C0023F001031362644B1B6A634A23F00403BA
:10239C0013627B68DB68002B15D0FFF769FB386193
:1023AC000AE0FFF765FB02463B69D31A41F288321B
:1023BC00934201D90323ABE0574B1B6A03F0020392
:1023CC00002BEED014E0FFF753FB38610AE0FFF767
:1023DC004FFB02463B69D31A41F28832934201D932
:1023EC00032395E04C4B1B6A03F00203002BEED148
:1023FC00FB7D012B05D1484BDB69474A23F0805309
:10240C00D3617B68DB69002B00F08180424B5B68F9
:10241C0003F00C03082B61D07B68DB69022B46D1DF
:10242C003F4B00221A60FFF723FB386108E0FFF7EF
:10243C001FFB02463B69D31A022B01D9032367E029
:10244C00354B1B6803F00073002BF0D17B681B6AC3
:10245C00B3F5803F08D1304B5B6823F400327B68C6
:10246C009B682D4913434B602B4B5B6823F4741210
:10247C007B68196A7B685B6A0B43274913434B6083
:10248C00274B01221A60FFF7F3FA386108E0FFF7D7
:10249C00EFFA02463B69D31A022B01D9032337E02A
:1024AC001D4B1B6803F00073002BF0D02FE01C4B6E
:1024BC0000221A60FFF7DCFA386108E0FFF7D8FA5F
:1024CC0002463B69D31A022B01D9032320E0124B9D
:1024DC001B6803F00073002BF0D118E07B68DB69FC
:1024EC00012B01D1012313E00B4B5B68FB60FB68F4
:1024FC0003F480327B681B6A9A4206D1FB6803F4B2
:10250C0070127B685B6A9A4201D0012300E00023C1
:10251C0018461837BD4680BD0010024000700040C0
:10252C006000424280B584B000AF786039607B684F
:10253C00002B01D10123D0E06A4B1B6803F0070389
:10254C003A689A4210D9674B1B6823F00702654919
:10255C003B6813430B60634B1B6803F007033A683B
:10256C009A4201D00123B8E07B681B6803F0020398
:10257C00002B20D07B681B6803F00403002B05D0D4
:10258C00594B5B68584A43F4E06353607B681B68A3
:10259C0003F00803002B05D0534B5B68524A43F4FD
:1025AC0060535360504B5B6823F0F0027B689B6870
:1025BC004D4913434B607B681B6803F00103002BF0
:1025CC0040D07B685B68012B07D1474B1B6803F439
:1025DC000033002B15D101237FE07B685B68022B55
:1025EC0007D1414B1B6803F00073002B09D1012369
:1025FC0073E03D4B1B6803F00203002B01D1012358
:10260C006BE0394B5B6823F003027B685B683649EF
:10261C0013434B60FFF72CFAF8600AE0FFF728FA37
:10262C000246FB68D31A41F28832934201D9032344
:10263C0053E02D4B5B6803F00C027B685B689B00DE
:10264C009A42EBD1274B1B6803F007033A689A4276
:10265C0010D2244B1B6823F0070222493B6813431A
:10266C000B60204B1B6803F007033A689A4201D0B9
:10267C00012332E07B681B6803F00403002B08D0B5
:10268C00194B5B6823F4E0627B68DB6816491343E3
:10269C004B607B681B6803F00803002B09D0124BBE
:1026AC005B6823F460527B681B69DB000E491343A3
:1026BC004B6000F021F802460B4B5B681B0903F0E2
:1026CC000F030A49CB5C22FA03F3094A1360094B46
:1026DC001B681846FFF78AF9002318461037BD46C9
:1026EC0080BD00BF002002400010024010300008E6
:1026FC00440000204800002080B487B000AF0023C5
:10270C00FB600023BB6000237B6100237B60002304
:10271C003B611E4B5B68FB60FB6803F00C03042BF6
:10272C0002D0082B03D027E0194B3B6127E0FB6854
:10273C009B0C03F00F03174AD35C7B60FB6803F41C
:10274C008033002B10D0114B5B685B0C03F0010342
:10275C00114AD35CBB607B680D4A02FB03F2BB6879
:10276C00B2FBF3F37B6104E07B680C4A02FB03F3DE
:10277C007B617B693B6102E0054B3B6100BF3B69C0
:10278C0018461C37BD4680BC704700BF0010024085
:10279C0000127A00203000083030000800093D009B
:1027AC0080B485B000AF78600A4B1B680A4AA2FB64
:1027BC0003235B0A7A6802FB03F3FB6000BFFB6830
:1027CC005A1EFA60002BF9D100BF00BF1437BD466A
:1027DC0080BC704744000020D34D621080B582B09D
:1027EC0000AF78607B68002B01D1012341E07B684E
:1027FC0093F83D30DBB2002B06D17B68002283F8C6
:10280C003C207868FFF72CF87B68022283F83D2087
:10281C007B681A687B6804331946104600F056FA38
:10282C007B68012283F846207B68012283F83E20D6
:10283C007B68012283F83F207B68012283F84020CB
:10284C007B68012283F841207B68012283F84220B7
:10285C007B68012283F843207B68012283F84420A3
:10286C007B68012283F845207B68012283F83D2098
:10287C00002318460837BD4680BD000080B485B0E3
:10288C0000AF78607B6893F83D30DBB2012B01D050
:10289C00012335E07B68022283F83D207B681B68AE
:1028AC00DA687B681B6842F00102DA607B681B689F
:1028BC00164A934209D07B681B68B3F1804F04D051
:1028CC007B681B68124A934211D17B681B689B681A
:1028DC0003F00703FB60FB68062B10D07B681B68BA
:1028EC001A687B681B6842F001021A6007E07B687B
:1028FC001B681A687B681B6842F001021A6000238F
:10290C0018461437BD4680BC704700BF002C0140F0
:10291C000004004080B584B000AF78607B681B6811
:10292C00DB68FB607B681B681B69BB60BB6803F0E2
:10293C000203002B20D0FB6803F00203002B1BD0FA
:10294C007B681B686FF002021A617B6801221A77A0
:10295C007B681B689B6903F00303002B03D078682A
:10296C0000F098F905E0786800F08BF9786800F0D1
:10297C009AF97B6800221A77BB6803F00403002BDA
:10298C0020D0FB6803F00403002B1BD07B681B6872
:10299C006FF004021A617B6802221A777B681B684D
:1029AC009B6903F44073002B03D0786800F072F934
:1029BC0005E0786800F065F9786800F074F97B68D8
:1029CC0000221A77BB6803F00803002B20D0FB68A9
:1029DC0003F00803002B1BD07B681B686FF0080208
:1029EC001A617B6804221A777B681B68DB6903F029
:1029FC000303002B03D0786800F04CF905E07868ED
:102A0C0000F03FF9786800F04EF97B6800221A77E5
:102A1C00BB6803F01003002B20D0FB6803F01003FD
:102A2C00002B1BD07B681B686FF010021A617B684F
:102A3C0008221A777B681B68DB6903F44073002B50
:102A4C0003D0786800F026F905E0786800F019F9F1
:102A5C00786800F028F97B6800221A77BB6803F0CD
:102A6C000103002B0CD0FB6803F00103002B07D0F3
:102A7C007B681B686FF001021A617868FEF7ACFE88
:102A8C00BB6803F08003002B0CD0FB6803F08003C1
:102A9C00002B07D07B681B686FF080021A61786886
:102AAC0000F06FFABB6803F04003002B0CD0FB68FE
:102ABC0003F04003002B07D07B681B686FF04002CB
:102ACC001A61786800F0F8F8BB6803F02003002B5B
:102ADC000CD0FB6803F02003002B07D07B681B682D
:102AEC006FF020021A61786800F042FA00BF1037CC
:102AFC00BD4680BD80B584B000AF786039600023DE
:102B0C00FB737B6893F83C30012B01D10223B4E0BA
:102B1C007B68012283F83C207B68022283F83D20ED
:102B2C007B681B689B68BB60BB6823F07703BB604A
:102B3C00BB6823F47F43BB607B681B68BA689A60F0
:102B4C003B681B68B3F5005F3ED0B3F5005F00F245
:102B5C008780B3F5805F00F08680B3F5805F7FD807
:102B6C00702B1AD0702B7BD8602B50D0602B77D861
:102B7C00502B3CD0502B73D8402B58D0402B6FD8B7
:102B8C00302B64D0302B6BD8202B60D0202B67D807
:102B9C00002B5CD0102B5AD062E07B6818683B6825
:102BAC0099683B685A683B68DB6800F06AF97B6897
:102BBC001B689B68BB60BB6843F07703BB607B689A
:102BCC001B68BA689A604FE07B6818683B68996824
:102BDC003B685A683B68DB6800F053F97B681B68FC
:102BEC009A687B681B6842F480429A603CE07B6880
:102BFC0018683B6859683B68DB681A4600F0CAF8ED
:102C0C007B681B685021184600F021F92CE07B688A
:102C1C0018683B6859683B68DB681A4600F0E8F8AE
:102C2C007B681B686021184600F011F91CE07B687A
:102C3C0018683B6859683B68DB681A4600F0AAF8CC
:102C4C007B681B684021184600F001F90CE07B689A
:102C5C001A683B681B681946104600F0F8F803E048
:102C6C000123FB7300E000BF7B68012283F83D2049
:102C7C007B68002283F83C20FB7B18461037BD464E
:102C8C0080BD80B483B000AF786000BF0C37BD4608
:102C9C0080BC704780B483B000AF786000BF0C3745
:102CAC00BD4680BC704780B483B000AF786000BF75
:102CBC000C37BD4680BC704780B483B000AF7860E1
:102CCC0000BF0C37BD4680BC7047000080B485B097
:102CDC0000AF786039607B681B68FB607B682B4AAF
:102CEC00934207D07B68B3F1804F03D07B68284AAE
:102CFC00934208D1FB6823F07003FB603B685B6870
:102D0C00FA681343FB607B68204A934207D07B68C8
:102D1C00B3F1804F03D07B681D4A934208D1FB6806
:102D2C0023F44073FB603B68DB68FA681343FB6079
:102D3C00FB6823F080023B685B691343FB607B6894
:102D4C00FA681A603B689A687B68DA623B681A68B2
:102D5C007B689A627B680D4A934203D13B681A697F
:102D6C007B681A637B6801225A617B681B6903F0DC
:102D7C000103002B05D07B681B6923F001027B68E3
:102D8C001A6100BF1437BD4680BC7047002C01404F
:102D9C000004004080B487B000AFF860B9607A607E
:102DAC00FB681B6A7B61FB681B6A23F00102FB68F2
:102DBC001A62FB689B693B613B6923F0F0033B6142
:102DCC007B681B013A6913433B617B6923F00A035F
:102DDC007B617A69BB6813437B61FB683A699A61D2
:102DEC00FB687A691A6200BF1C37BD4680BC70470D
:102DFC0080B487B000AFF860B9607A60FB681B6A7A
:102E0C007B61FB681B6A23F01002FB681A62FB688B
:102E1C009B693B613B6923F470433B617B681B03FB
:102E2C003A6913433B617B6923F0A0037B61BB6868
:102E3C001B017A6913437B61FB683A699A61FB68F1
:102E4C007A691A6200BF1C37BD4680BC704780B4DB
:102E5C0085B000AF786039607B689B68FB60FB686D
:102E6C0023F07003FB603A68FB68134343F00703DD
:102E7C00FB607B68FA689A6000BF1437BD4680BC63
:102E8C00704780B487B000AFF860B9607A603B607F
:102E9C00FB689B687B617B6923F47F437B613B68A8
:102EAC001A027B681A43BB6813437A6913437B612C
:102EBC00FB687A699A6000BF1C37BD4680BC7047BE
:102ECC0080B485B000AF786039607B6893F83C3093
:102EDC00012B01D1022341E07B68012283F83C20C5
:102EEC007B68022283F83D207B681B685B68FB6073
:102EFC007B681B689B68BB60FB6823F07003FB60FE
:102F0C003B681B68FA681343FB607B681B68FA68B4
:102F1C005A607B681B68144A934209D07B681B6813
:102F2C00B3F1804F04D07B681B68104A93420CD1DC
:102F3C00BB6823F08003BB603B685B68BA681343D3
:102F4C00BB607B681B68BA689A607B68012283F857
:102F5C003D207B68002283F83C2000231846143760
:102F6C00BD4680BC704700BF002C014000040040EF
:102F7C0080B483B000AF786000BF0C37BD4680BC16
:102F8C00704780B483B000AF786000BF0C37BD468B
:102F9C0080BC704770B500260C4D0D4C641BA41002
:102FAC00A64209D100F022F800260A4D0A4C641BF7
:102FBC00A410A64205D170BD55F8043B98470136C4
:102FCC00EEE755F8043B98470136F2E73430000839
:102FDC00343000083430000838300008034602440E
:102FEC00934200D1704703F8011BF9E7F8B500BF15
:102FFC00F8BC08BC9E467047F8B500BFF8BC08BCCE
:04300C009E46704725
:103010000000000000000000010203040607080988
:1030200002030405060708090A0B0C0D0E0F101009
:043030000102000099
:04303400310100085E
:043038000D0100087E
:10303C000100000001000000010000000100000080
:10304C000100000001000000010000000100000070
:10305C000100000001000000010000000100000060
:10306C00F401000004000000050000000300000053
:10307C000200000000127A001000000001000000A5
:040000050800198155
:00000001FF
