:020000040800F2
:1000000000280020691400089D130008A3130008AD
:10001000A9130008AF130008B51300080000000082
:10002000000000000000000000000000BB130008FA
:10003000C713000800000000D3130008DF130008F6
:10004000B1140008B1140008B1140008B11400087C
:10005000B1140008B1140008B1140008B11400086C
:10006000B1140008B1140008B1140008B11400085C
:10007000B1140008B1140008B1140008B11400084C
:10008000B1140008B1140008B1140008B11400083C
:10009000B1140008B1140008B1140008B11400082C
:1000A000B1140008B1140008B1140008B11400081C
:1000B000ED130008B114000800000000B11400089E
:1000C000B11400080000000000000000B114000896
:1000D00000000000B1140008B11400080000000086
:1000E000B1140008B1140008B114000800000000A9
:1000F0000000000000000000000000000000000000
:0C01000000000000000000005FF808F1A3
:10010C0010B5054C237833B9044B13B10448AFF345
:10011C0000800123237010BD44000020000000006B
:10012C00E02A000808B5034B1BB103490348AFF3A1
:10013C00008008BD0000000048000020E02A0008F4
:10014C0080B582B000AF7860012201219F4801F098
:10015C00ACFC012202219D4801F0A7FC01220421E4
:10016C009A4801F0A2FC01220821984801F09DFC5C
:10017C0001221021954801F098FC0122202193487E
:10018C0001F093FC01224021904801F08EFC7B6829
:10019C00092B00F2168101A252F823F0D1010008BC
:1001AC000F02000825020008590200088D02000801
:1001BC00B7020008EB0200082903000849030008F5
:1001CC009103000800220121804801F06EFC0022FE
:1001DC0002217E4801F069FC002204217B4801F0D9
:1001EC0064FC00220821794801F05FFC00221021F8
:1001FC00764801F05AFC00222021744801F055FC8D
:10020C00E0E000220221714801F04FFC00220421A1
:10021C006E4801F04AFCD5E0002201216B4801F048
:10022C0044FC00220221694801F03FFC0022082115
:10023C00664801F03AFC00221021644801F035FCBC
:10024C0000224021614801F030FCBBE0002201217A
:10025C005E4801F02AFC002202215C4801F025FCDA
:10026C0000220421594801F020FC002208215748A3
:10027C0001F01BFC00224021544801F016FCA1E0C7
:10028C0000220221514801F010FC002204214F48A9
:10029C0001F00BFC002220214C4801F006FC00224E
:1002AC0040214A4801F001FC8CE000220121474822
:1002BC0001F0FBFB00220421444801F0F6FB002274
:1002CC000821424801F0F1FB002220213F4801F0B7
:1002DC00ECFB002240213D4801F0E7FB72E00022DC
:1002EC0001213A4801F0E1FB00220421374801F0DA
:1002FC00DCFB00220821354801F0D7FB002210213D
:10030C00324801F0D2FB00222021304801F0CDFB15
:10031C00002240212D4801F0C8FB53E000220121AE
:10032C002A4801F0C2FB00220221284801F0BDFB43
:10033C0000220421254801F0B8FB43E000220121F2
:10034C00224801F0B2FB00220221204801F0ADFB53
:10035C00002204211D4801F0A8FB002208211B48A3
:10036C0001F0A3FB00221021184801F09EFB002293
:10037C002021164801F099FB00224021134801F07E
:10038C0094FB1FE000220121104801F08EFB00229B
:10039C0002210E4801F089FB002204210B4801F0D8
:1003AC0084FB00220821094801F07FFB0022202158
:1003BC00064801F07AFB00224021044801F075FB4D
:1003CC0000E000BF00BF0837BD4680BD000C0140F7
:1003DC0080B582B000AF786001228021B74801F06F
:1003EC0064FB01224FF48071B44801F05EFB0122E2
:1003FC004FF40071B14801F058FB01224FF48061B9
:10040C00AE4801F052FB01224FF40061AB4801F001
:10041C004CFB01224FF48051A84801F046FB01220D
:10042C004FF40051A54801F040FB7B68092B00F20A
:10043C003F8101A252F823F06D040008B5040008B6
:10044C00CF0400080B0500084705000879050008D3
:10045C00B5050008FD050008210600087506000812
:10046C0000228021954801F020FB00224FF480717E
:10047C00924801F01AFB00224FF400718F4801F0F2
:10048C0014FB00224FF480618C4801F00EFB00221B
:10049C004FF40061894801F008FB00224FF48051B1
:1004AC00864801F002FB04E100224FF4807183487E
:1004BC0001F0FBFA00224FF40071804801F0F5FACC
:1004CC00F7E0002280217D4801F0EFFA00224FF482
:1004DC0080717A4801F0E9FA00224FF48061774884
:1004EC0001F0E3FA00224FF40061744801F0DDFAE8
:1004FC0000224FF40051714801F0D7FAD9E00022E4
:10050C0080216E4801F0D1FA00224FF480716B48C3
:10051C0001F0CBFA00224FF40071684801F0C5FAE3
:10052C0000224FF48061654801F0BFFA00224FF4BD
:10053C000051624801F0B9FABBE000224FF480711F
:10054C005E4801F0B2FA00224FF400715B4801F0F2
:10055C00ACFA00224FF48051584801F0A6FA002260
:10056C004FF40051554801F0A0FAA2E0002280217E
:10057C00524801F09AFA00224FF400714F4801F0F2
:10058C0094FA00224FF480614C4801F08EFA00225C
:10059C004FF48051494801F088FA00224FF4005181
:1005AC00464801F082FA84E000228021434801F0A1
:1005BC007CFA00224FF40071404801F076FA0022D8
:1005CC004FF480613D4801F070FA00224FF4006155
:1005DC003A4801F06AFA00224FF48051374801F092
:1005EC0064FA00224FF40051344801F05EFA60E0E6
:1005FC0000228021314801F058FA00224FF480711A
:10060C002E4801F052FA00224FF400712B4801F0F1
:10061C004CFA4EE000228021284801F046FA0022D4
:10062C004FF48071254801F040FA00224FF400711C
:10063C00224801F03AFA00224FF480611F4801F081
:10064C0034FA00224FF400611C4801F02EFA00220B
:10065C004FF48051194801F028FA00224FF4005150
:10066C00164801F022FA24E000228021134801F000
:10067C001CFA00224FF48071104801F016FA002287
:10068C004FF400710D4801F010FA00224FF4806114
:10069C000A4801F00AFA00224FF48051074801F091
:1006AC0004FA00224FF40051044801F0FEF900E076
:1006BC0000BF00BF0837BD4680BD00BF000C014025
:1006CC0080B400AF064B1B68012B04D1044B0022F5
:1006DC001A60012300E000231846BD4680BC704719
:1006EC006000002080B500AF6B4B1B686B4A136039
:1006FC006B4B1B68684A13604FF48071694801F0BA
:10070C00BDF903461A46664B1A60674B1B68674A6D
:10071C001360674B1B68644A13604FF400716148A7
:10072C0001F0ACF903461A46614B1A60614B1B6829
:10073C00614A1360614B1B685E4A13604FF4806121
:10074C00584801F09BF903461A465C4B1A60534B10
:10075C001A68514B1B689A422FD14F4B1A68504B59
:10076C001B689A4229D1564B1A684D4B1B689A420A
:10077C000FD04B4B1B68524A1360494B1B68002B24
:10078C001BD1504B4FF4FA721A604F4B01221A6076
:10079C0013E04C4B1B68013B4A4A1360494B1B68E6
:1007AC00002B0AD1474B4FF4FA721A603C4B1B6872
:1007BC00002B02D1444B01221A603C4B1A683A4B75
:1007CC001B689A422FD1384B1A68394B1B689A42D6
:1007DC0029D13E4B1A68364B1B689A420FD0344BCA
:1007EC001B683A4A1360324B1B68002B1BD1354BEC
:1007FC004FF4FA721A60364B01221A6013E0314B37
:10080C001B68013B2F4A13602E4B1B68002B0AD12F
:10081C002C4B4FF4FA721A60254B1B68002B02D13B
:10082C002B4B01221A60244B1A68224B1B689A42EC
:10083C002FD1204B1A68214B1B689A4229D1254B8A
:10084C001A681E4B1B689A420FD01C4B1B68214A1E
:10085C0013601A4B1B68002B1BD11A4B4FF4FA7206
:10086C001A601D4B01221A6013E0164B1B68013BEA
:10087C00144A1360134B1B68002B0AD1114B4FF415
:10088C00FA721A600D4B1B68002B02D1124B01221D
:10089C001A6000BF80BD00BF0400002000000020D3
:1008AC000800002000080140140000201000002067
:1008BC001800002024000020200000202800002028
:1008CC000C00002030000020600000201C000020E4
:1008DC00640000202C0000206800002080B582B04D
:1008EC0002AF464B1B68002B02D0012B3BD082E0A1
:1008FC0003230193062300931723052205211620B9
:10090C0000F09CFA01224FF400613D4801F0CDF853
:10091C0001224FF480513A4801F0C7F801224FF4FC
:10092C000051374801F0C1F801224FF4804134489E
:10093C0001F0BBF80521032000F0E2F9FFF7C0FE3F
:10094C000346012B54D100224FF480512C4801F066
:10095C00ACF80120FFF73CFD284B01221A60642003
:10096C0000F04EFD44E0274B1B68012B15D100F025
:10097C0003FA254B1B68013B234A1360224B1B686F
:10098C00002B07D103220221052000F081FA1E4B17
:10099C0004221A60192000F033FDFFF791FE034684
:1009AC00012B27D1154B02221A6001224FF4006152
:1009BC00134801F07AF800224FF48051104801F0EE
:1009CC0074F801224FF400510D4801F06EF8012229
:1009DC004FF480410A4801F068F80220FFF7F8FC58
:1009EC0000F0DEF800F034F9322000F009FD01E0EF
:1009FC0000BF00E000BF00BFBD4680BD6C00002002
:100A0C0000080140900000203400002080B500AFA9
:100A1C00604B1B68042B7CD0042B00F3B980022B99
:100A2C0002D0032B3BD0B3E05B4B1B68012B0AD1EC
:100A3C0004215A4801F051F82021584801F04DF892
:100A4C00322000F0DDFCFFF73BFE0346012B40F0AB
:100A5C009A80504B03221A6001224FF400614F48D8
:100A6C0001F023F800224FF480514C4801F01DF89E
:100A7C0001224FF40051494801F017F801224FF4BC
:100A8C008041464801F011F80320FFF7A1FC00F06B
:100A9C0087F800F0DDF8322000F0B2FC73E03E4B3A
:100AAC001B68012B0AD110213C4801F016F880215B
:100ABC003A4801F012F8322000F0A2FCFFF700FED9
:100ACC000346012B61D1334B04221A6001224FF4EF
:100ADC000061324800F0E9FF00224FF480512F48AA
:100AEC0000F0E3FF01224FF400512C4800F0DDFF31
:100AFC0001224FF48041294800F0D7FF0420FFF772
:100B0C0067FC00F04DF800F0A3F8322000F078FC00
:100B1C003BE0214B1B68012B0AD108211F4800F038
:100B2C00DCFF40211D4800F0D8FF322000F068FCAB
:100B3C00FFF7C6FD0346012B29D1164B01221A6083
:100B4C0001224FF40061154800F0AFFF00224FF472
:100B5C008051124800F0A9FF01224FF400510F48B8
:100B6C0000F0A3FF01224FF480410C4800F09DFFE0
:100B7C000120FFF72DFC00F013F800F069F81920A4
:100B8C0000F03EFC03E000BF02E000BF00E000BF4D
:100B9C0000BF80BD6C0000209000002000080140C8
:100BAC0080B500AF00222021074800F07EFF002214
:100BBC008021054800F079FF00224021024800F016
:100BCC0074FF00BF80BD00BF0008014080B500AFBE
:100BDC0001222021074800F068FF002280210548EF
:100BEC0000F063FF00224021024800F05EFF00BFCE
:100BFC0080BD00BF0008014080B500AF002220215D
:100C0C00074800F052FF01228021054800F04DFFFB
:100C1C0000224021024800F048FF00BF80BD00BF09
:100C2C000008014080B500AF00222021074800F0E9
:100C3C003CFF00228021054800F037FF01224021B3
:100C4C00024800F032FF00BF80BD00BF0008014029
:100C5C0080B500AF00220421074800F026FF0022D7
:100C6C001021054800F021FF00220821024800F065
:100C7C001CFF00BF80BD00BF0008014080B500AF65
:100C8C0001220421074800F010FF00221021054822
:100C9C0000F00BFF00220821024800F006FF00BF05
:100CAC0080BD00BF0008014080B500AF00220421C8
:100CBC00074800F0FAFE01221021054800F0F5FE6D
:100CCC0000220821024800F0F0FE00BF80BD00BFEA
:100CDC000008014080B500AF00220421074800F055
:100CEC00E4FE00221021054800F0DFFE012208215D
:100CFC00024800F0DAFE00BF80BD00BF00080140D2
:100D0C0080B483B000AF786039607B68184A82FB8E
:100D1C0003129210DB17D31A164A13607968144B1E
:100D2C0083FB01239A10CB17D21A13469B00134452
:100D3C005B00CA1A0F4B5A603B680D4A82FB0312C8
:100D4C009210DB17D31A0B4A93603968084B83FB5C
:100D5C0001239A10CB17D21A13469B0013445B0045
:100D6C00CA1A044BDA6000BF0C37BD4680BC704712
:100D7C00676666667400002080B500AF2C4B1B685C
:100D8C00002B02D0012B23D045E000224FF4006150
:100D9C00284800F08AFE01224FF48051254800F0CB
:100DAC0084FE00224FF40051224800F07EFE012206
:100DBC004FF480411F4800F078FE1F4B1B6818460B
:100DCC00FFF706FB1C4B9B681846FFF7B9F922E0AE
:100DDC0001224FF40061174800F067FE00224FF427
:100DEC008051144800F061FE01224FF4005111486B
:100DFC0000F05BFE00224FF480410E4800F055FEDF
:100E0C000D4B5B681846FFF7E3FA0B4BDB68184693
:100E1C00FFF796F900BF064B1B680133002B03F05C
:100E2C000103B8BF5B42024A136000BF80BD00BF24
:100E3C0070000020000801407400002080B485B0D0
:100E4C0000AFF860B9607A603B600B4AFB681360D6
:100E5C000A4A3B6813600A4AFB691360094A7B68BB
:100E6C001360094ABB681360084ABB69136000BF72
:100E7C001437BD4680BC7047A800002098000020A5
:100E8C00A40000209C000020A00000209400002062
:100E9C0080B584B000AFF860B9607A60804B1B6895
:100EAC00002B09DC7F4B1B68172B05D17C4ABB68D8
:100EBC0013607C4B18221A60794B1B68002B09DCE1
:100ECC00784B1B68182B05D1754AFB681360754B62
:100EDC0016221A60724B1B68002B09DC714B1B68C5
:100EEC00162B05D16E4A7B6813606E4B17221A6065
:100EFC006D4B1B68002B09DC6C4B1B68162B05D14A
:100F0C00694A7B681360694B17221A60664B1B6831
:100F1C00002B09DC654B1B68172B05D1624ABB689B
:100F2C001360624B18221A605F4B1B68002B09DCA4
:100F3C005E4B1B68182B05D15B4AFB6813605B4B3F
:100F4C0016221A60564B1B685A1E55490A60564A9F
:100F5C001268511E5448016011461846FFF7D0FE26
:100F6C00534B1B68062B06D1FFF79EFE514B1B689B
:100F7C000133504A13604E4B1B68072B06D1FFF709
:100F8C00A9FE4C4B1B6801334A4A1360484B1B6843
:100F9C00052B06D1FFF772FE464B1B680133454A01
:100FAC001360444B1B687A689A4209D1404B1B680A
:100FBC00062B05D13E4B07221A603E4B00221A60CD
:100FCC003C4B1B68BA689A4209D1394B1B68072BFA
:100FDC0005D1374B05221A60364B00221A60354B6F
:100FEC001B68FA689A4209D1314B1B68052B05D155
:100FFC002F4B06221A602F4B00221A602E4B1B68B7
:10100C00052B06D1FFF7E2FD2C4B1B6801332B4A55
:10101C001360294B1B68072B06D1FFF703FE274BE8
:10102C001B680133254A1360234B1B68062B06D122
:10103C00FFF7E2FD214B1B680133204A13601F4B65
:10104C001B68FA689A4209D11B4B1B68052B05D10A
:10105C00194B06221A60194B00221A60174B1B6899
:10106C007A689A4209D1144B1B68062B05D1124B96
:10107C0007221A60114B00221A60104B1B68BA68C9
:10108C009A4209D10C4B1B68072B05D10A4B052240
:10109C001A600A4B00221A6000BF1037BD4680BD93
:1010AC00A4000020980000209C000020A800002034
:1010BC009400002088000020A00000208400002064
:1010CC0080B500AF00F0F0F900F00EF800F094F8E5
:1010DC0000F046F8034801F045F9FFF7FFFBFFF776
:1010EC0095FCFAE7AC00002080B590B000AF07F19A
:1010FC00180328220021184601F0E4FC3B1D0022B5
:10110C001A605A609A60DA601A610223BB6101238B
:10111C00BB621023FB6200237B6307F118031846A4
:10112C0000F0F4FC0346002B01D000F0D5F80F239F
:10113C007B600023BB600023FB6000233B6100232A
:10114C007B613B1D0021184600F060FF0346002B1D
:10115C0001D000F0C1F800BF4037BD4680BD000093
:10116C0080B586B000AF07F1080300221A605A6000
:10117C009A60DA603B4600221A605A601D4B4FF0B1
:10118C0080421A601B4B41F63F725A60194B002289
:10119C009A60184B0922DA60164B00221A61154B23
:1011AC0000229A61134801F08DF80346002B01D000
:1011BC0000F092F84FF48053BB6007F10803194616
:1011CC000C4801F00BFA0346002B01D000F084F818
:1011DC0000233B6000237B603B461946054801F029
:1011EC00E3FB0346002B01D000F076F800BF183764
:1011FC00BD4680BDAC00002080B586B000AF07F1C5
:10120C00080300221A605A609A60DA60294B9B69C5
:10121C00284A43F004039361264B9B6903F00403B3
:10122C007B607B68234B9B69224A43F008039361E4
:10123C00204B9B6903F008033B603B68002247F698
:10124C00FC011D4800F031FC002243F6FF711B48E5
:10125C0000F02BFC47F6FC03BB600123FB60002372
:10126C003B6102237B6107F108031946124800F029
:10127C008BFA43F6FF73BB600123FB6000233B61D9
:10128C0002237B6107F1080319460C4800F07CFA35
:10129C004FF4E063BB600023FB6001233B6107F16B
:1012AC0008031946044800F06FFA00BF1837BD4612
:1012BC0080BD00BF0010024000080140000C01403E
:1012CC0080B582B000AF786000F0AEF8FFF70AFA94
:1012DC0000BF0837BD4680BD80B400AF72B600BFFA
:1012EC00FEE7000080B485B000AF154B9B69144A33
:1012FC0043F001039361124B9B6903F00103BB6044
:10130C00BB680F4BDB690E4A43F08053D3610C4B27
:10131C00DB6903F080537B607B680A4B5B68FB6086
:10132C00FB6823F0E063FB60FB6843F08063FB60C9
:10133C00044AFB68536000BF1437BD4680BC70473D
:10134C00001002400000014080B584B000AF78600E
:10135C007B681B68B3F1804F13D10C4BDB690B4AD4
:10136C0043F00103D361094BDB6903F00103FB601C
:10137C00FB68002200211C2000F0CFF91C2000F09B
:10138C00E8F900BF1037BD4680BD00BF0010024019
:10139C0080B400AFFEE780B400AFFEE780B400AFCE
:1013AC00FEE780B400AFFEE780B400AFFEE780B488
:1013BC0000AF00BFBD4680BC704780B400AF00BF1B
:1013CC00BD4680BC704780B400AF00BFBD4680BC3A
:1013DC00704780B500AF00F0ADF800BF80BD0000D5
:1013EC0080B500AF024801F009F800BF80BD00BF16
:1013FC00AC00002080B400AF00BFBD4680BC70477D
:10140C0080B483B000AF7860054A7B681360054BED
:10141C0000221A6000BF0C37BD4680BC704700BF6D
:10142C008C0000209000002080B400AF094B1B689A
:10143C00002B0BDD074B1B68013B064A1360054B69
:10144C001B68002B02DC044B01221A6000BFBD4656
:10145C0080BC70478C00002090000020FFF7CAFF72
:10146C000B480C490C4A002302E0D458C4500433F6
:10147C00C4188C42F9D3094A094C002301E01360CB
:10148C000432A242FBD301F0F9FAFFF719FE7047C0
:10149C000000002044000020242B00084400002001
:1014AC00F8000020FEE7000080B500AF084B1B6879
:1014BC00074A43F010031360032000F023F90F20B8
:1014CC0000F008F8FFF70EFF0023184680BD00BFA0
:1014DC000020024080B582B000AF7860124B1A68D1
:1014EC00124B1B7819464FF47A73B3FBF1F3B2FB32
:1014FC00F3F3184600F03BF90346002B01D001230F
:10150C000EE07B680F2B0AD8002279684FF0FF3071
:10151C0000F003F9064A7B681360002300E0012306
:10152C0018460837BD4680BD38000020400000201A
:10153C003C00002080B400AF054B1B781A46054BCD
:10154C001B681344034A136000BFBD4680BC704740
:10155C0040000020F400002080B400AF024B1B6858
:10156C001846BD4680BC7047F400002080B485B09E
:10157C0000AF78607B6803F00703FB600C4BDB6803
:10158C00BB60BA684FF6FF031340BB60FB681A02DE
:10159C00BB68134343F0BF6343F40033BB60044A9E
:1015AC00BB68D36000BF1437BD4680BC704700BF1A
:1015BC0000ED00E080B400AF044BDB681B0A03F0C5
:1015CC0007031846BD4680BC704700BF00ED00E025
:1015DC0080B483B000AF0346FB7197F90730002B42
:1015EC000BDBFB7903F01F02064997F907305B0907
:1015FC00012000FA02F241F8232000BF0C37BD464F
:10160C0080BC704700E100E080B483B000AF0346BB
:10161C003960FB7197F90730002B0ADB3B68DAB2B3
:10162C000C4997F907301201D2B20B4483F800230E
:10163C000AE03B68DAB20849FB7903F00F03043B7C
:10164C001201D2B20B441A7600BF0C37BD4680BCD7
:10165C00704700BF00E100E000ED00E080B489B00D
:10166C0000AFF860B9607A60FB6803F00703FB61B8
:10167C00FB69C3F10703042B28BF0423BB61FB697F
:10168C000433062B02D9FB69033B00E000237B618A
:10169C004FF0FF32BB6902FA03F3DA43BB681A401E
:1016AC007B699A404FF0FF317B6901FA03F3D94310
:1016BC007B680B40134318462437BD4680BC7047EB
:1016CC0080B582B000AF78607B68013BB3F1807F5E
:1016DC0001D301230FE00A4A7B68013B53600F21C1
:1016EC004FF0FF30FFF790FF054B00229A60044B40
:1016FC0007221A60002318460837BD4680BD00BF7C
:10170C0010E000E080B582B000AF78607868FFF739
:10171C002DFF00BF0837BD4680BD80B586B000AF39
:10172C000346B9607A60FB7300237B61FFF742FFCD
:10173C0078617A68B9687869FFF790FF024697F983
:10174C000F3011461846FFF75FFF00BF1837BD4634
:10175C0080BD80B582B000AF0346FB7197F90730AE
:10176C001846FFF735FF00BF0837BD4680BD80B572
:10177C0082B000AF78607868FFF7A2FF0346184686
:10178C000837BD4680BD000080B48BB000AF7860D8
:10179C00396000237B6200233B6248E101227B6AB3
:1017AC0002FA03F3FB613B681B68FA691340BB61E7
:1017BC00BA69FB699A4240F037813B685B68A34A7F
:1017CC0093425ED0A14A934275D8A14A934258D015
:1017DC009F4A93426FD89F4A934252D09D4A93425C
:1017EC0069D89D4A93424CD09B4A934263D89B4AFA
:1017FC00934246D0994A93425DD8122B2AD8122B89
:10180C0059D801A252F823F08F1800086918000863
:10181C007B180008BD180008C3180008C31800087E
:10182C00C3180008C3180008C3180008C318000820
:10183C00C3180008C3180008C3180008C318000810
:10184C00C3180008C3180008C31800087118000852
:10185C0085180008824A934213D02CE03B68DB6861
:10186C003B6229E03B68DB6804333B6224E03B6865
:10187C00DB6808333B621FE03B68DB680C333B6280
:10188C001AE03B689B68002B02D104233B6213E0F7
:10189C003B689B68012B05D108233B627B68FA6986
:1018AC001A6109E008233B627B68FA695A6103E01C
:1018BC0000233B6200E000BFBB69FF2B01D87B68B3
:1018CC0001E07B6804337B61BB69FF2B02D87B6A28
:1018DC009B0002E07B6A083B9B003B617B691A68BA
:1018EC000F213B6901FA03F3DB431A40396A3B6968
:1018FC0001FA03F31A437B691A603B685B6803F0D7
:10190C008053002B00F09080564B9B69554A43F056
:10191C0001039361534B9B6903F00103BB60BB68EC
:10192C00514A7B6A9B08023352F82330FB607B6A76
:10193C0003F003039B000F2202FA03F3DB43FA6864
:10194C001340FB607B68494A93420DD07B68484A40
:10195C00934207D07B68474A934201D1022304E0AB
:10196C00032302E0012300E000237A6A02F0030261
:10197C0092009340FA681343FB603B497B6A9B08D7
:10198C000233FA6841F823203B685B6803F4801348
:10199C00002B06D0384B9A683749BB6913438B60D0
:1019AC0006E0354B9A68BB69DB43334913408B60C7
:1019BC003B685B6803F40013002B06D02E4BDA68EF
:1019CC002D49BB691343CB6006E02B4BDA68BB692E
:1019DC00DB4329491340CB603B685B6803F400335D
:1019EC00002B06D0244B5A682349BB6913434B6028
:1019FC0006E0214B5A68BB69DB431F4913404B601F
:101A0C003B685B6803F48033002B06D01A4B1A68D2
:101A1C001949BB6913430B6006E0174B1A68BB6985
:101A2C00DB43154913400B607B6A01337B623B68D7
:101A3C001A687B6A22FA03F3002B7FF4AFAE00BF67
:101A4C0000BF2C37BD4680BC704700BF0000321071
:101A5C0000003110000022100000211000001210B4
:101A6C00000011100010024000000140000801406D
:101A7C00000C0140001001400004014080B485B00E
:101A8C0000AF78600B467B807B689A687B8813403C
:101A9C00002B02D00123FB7301E00023FB73FB7BC3
:101AAC0018461437BD4680BC704780B483B000AF75
:101ABC0078600B467B8013467B707B78002B03D0C1
:101ACC007A887B681A6103E07B881A047B681A6148
:101ADC0000BF0C37BD4680BC704780B485B000AFEA
:101AEC0078600B467B807B68DB68FB607A88FB68E0
:101AFC0013401A04FB68D9437B880B401A437B685C
:101B0C001A6100BF1437BD4680BC704780B586B0E3
:101B1C0000AF78607B68002B01D101236CE27B68FD
:101B2C001B6803F00103002B00F08780924B5B686D
:101B3C0003F00C03042B0CD08F4B5B6803F00C03ED
:101B4C00082B12D18C4B5B6803F48033B3F5803FC8
:101B5C000BD1894B1B6803F40033002B6CD07B68D2
:101B6C005B68002B68D1012346E27B685B68B3F5A8
:101B7C00803F06D1804B1B687F4A43F4803313604F
:101B8C002EE07B685B68002B0CD17B4B1B687A4A80
:101B9C0023F480331360784B1B68774A23F480233B
:101BAC0013601DE07B685B68B3F5A02F0CD1724B02
:101BBC001B68714A43F4802313606F4B1B686E4A99
:101BCC0043F4803313600BE06B4B1B686A4A23F4BD
:101BDC0080331360684B1B68674A23F480231360BF
:101BEC007B685B68002B13D0FFF7B6FC386108E00C
:101BFC00FFF7B2FC02463B69D31A642B01D90323CD
:101C0C00FAE15D4B1B6803F40033002BF0D014E0B9
:101C1C00FFF7A2FC386108E0FFF79EFC02463B6927
:101C2C00D31A642B01D90323E6E1534B1B6803F44D
:101C3C000033002BF0D100E000BF7B681B6803F081
:101C4C000203002B63D04C4B5B6803F00C03002B9E
:101C5C000BD0494B5B6803F00C03082B1CD1464B93
:101C6C005B6803F48033002B16D1434B1B6803F0E5
:101C7C000203002B05D07B681B69012B01D00123CB
:101C8C00BAE13D4B1B6823F0F8027B685B69DB0013
:101C9C00394913430B603AE07B681B69002B20D059
:101CAC00364B01221A60FFF757FC386108E0FFF74A
:101CBC0053FC02463B69D31A022B01D903239BE147
:101CCC002D4B1B6803F00203002BF0D02A4B1B6832
:101CDC0023F0F8027B685B69DB00274913430B6038
:101CEC0015E0264B00221A60FFF736FC386108E03D
:101CFC00FFF732FC02463B69D31A022B01D90323AE
:101D0C007AE11D4B1B6803F00203002BF0D17B68BA
:101D1C001B6803F00803002B3AD07B689B69002BEF
:101D2C0019D0174B01221A60FFF716FC386108E036
:101D3C00FFF712FC02463B69D31A022B01D903238D
:101D4C005AE10D4B5B6A03F00203002BF0D001202B
:101D5C0000F09AFA1CE00A4B00221A60FFF7FCFB19
:101D6C0038610FE0FFF7F8FB02463B69D31A022BF0
:101D7C0008D9032340E100BF00100240000042429A
:101D8C00800442429E4B5B6A03F00203002BE9D1B4
:101D9C007B681B6803F00403002B00F0A680002373
:101DAC00FB75974BDB6903F08053002B0DD1944BE3
:101DBC00DB69934A43F08053D361914BDB6903F0A9
:101DCC008053BB60BB680123FB758E4B1B6803F40F
:101DDC008073002B18D18B4B1B688A4A43F4807399
:101DEC001360FFF7B9FB386108E0FFF7B5FB02465B
:101DFC003B69D31A642B01D90323FDE0814B1B688B
:101E0C0003F48073002BF0D07B68DB68012B06D1C8
:101E1C007B4B1B6A7A4A43F0010313622DE07B680B
:101E2C00DB68002B0CD1764B1B6A754A23F001033F
:101E3C001362734B1B6A724A23F0040313621CE097
:101E4C007B68DB68052B0CD16D4B1B6A6C4A43F02D
:101E5C00040313626A4B1B6A694A43F00103136261
:101E6C000BE0674B1B6A664A23F001031362644B59
:101E7C001B6A634A23F0040313627B68DB68002B44
:101E8C0015D0FFF769FB38610AE0FFF765FB0246E6
:101E9C003B69D31A41F28832934201D90323ABE058
:101EAC00574B1B6A03F00203002BEED014E0FFF734
:101EBC0053FB38610AE0FFF74FFB02463B69D31A2C
:101ECC0041F28832934201D9032395E04C4B1B6AB3
:101EDC0003F00203002BEED1FB7D012B05D1484B07
:101EEC00DB69474A23F08053D3617B68DB69002BA5
:101EFC0000F08180424B5B6803F00C03082B61D02F
:101F0C007B68DB69022B46D13F4B00221A60FFF73E
:101F1C0023FB386108E0FFF71FFB02463B69D31A2D
:101F2C00022B01D9032367E0354B1B6803F00073C8
:101F3C00002BF0D17B681B6AB3F5803F08D1304B86
:101F4C005B6823F400327B689B682D4913434B601C
:101F5C002B4B5B6823F474127B68196A7B685B6A91
:101F6C000B43274913434B60274B01221A60FFF7A1
:101F7C00F3FA386108E0FFF7EFFA02463B69D31A2F
:101F8C00022B01D9032337E01D4B1B6803F00073B0
:101F9C00002BF0D02FE01C4B00221A60FFF7DCFA6C
:101FAC00386108E0FFF7D8FA02463B69D31A022BD6
:101FBC0001D9032320E0124B1B6803F00073002BA4
:101FCC00F0D118E07B68DB69012B01D1012313E010
:101FDC000B4B5B68FB60FB6803F480327B681B6A0D
:101FEC009A4206D1FB6803F470127B685B6A9A42D2
:101FFC0001D0012300E0002318461837BD4680BDF0
:10200C0000100240007000406000424280B584B075
:10201C0000AF786039607B68002B01D10123D0E0E0
:10202C006A4B1B6803F007033A689A4210D9674B56
:10203C001B6823F0070265493B6813430B60634B35
:10204C001B6803F007033A689A4201D00123B8E0F9
:10205C007B681B6803F00203002B20D07B681B6895
:10206C0003F00403002B05D0594B5B68584A43F42A
:10207C00E06353607B681B6803F00803002B05D0FA
:10208C00534B5B68524A43F460535360504B5B684C
:10209C0023F0F0027B689B684D4913434B607B68CF
:1020AC001B6803F00103002B40D07B685B68012B9D
:1020BC0007D1474B1B6803F40033002B15D10123C8
:1020CC007FE07B685B68022B07D1414B1B6803F0F8
:1020DC000073002B09D1012373E03D4B1B6803F007
:1020EC000203002B01D101236BE0394B5B6823F019
:1020FC0003027B685B68364913434B60FFF72CFA8D
:10210C00F8600AE0FFF728FA0246FB68D31A41F29E
:10211C008832934201D9032353E02D4B5B6803F0C3
:10212C000C027B685B689B009A42EBD1274B1B68C7
:10213C0003F007033A689A4210D2244B1B6823F031
:10214C00070222493B6813430B60204B1B6803F0CA
:10215C0007033A689A4201D0012332E07B681B687E
:10216C0003F00403002B08D0194B5B6823F4E062E6
:10217C007B68DB68164913434B607B681B6803F074
:10218C000803002B09D0124B5B6823F460527B6868
:10219C001B69DB000E4913434B6000F021F802462B
:1021AC000B4B5B681B0903F00F030A49CB5C22FA4B
:1021BC0003F3094A1360094B1B681846FFF78AF9A9
:1021CC00002318461037BD4680BD00BF00200240DA
:1021DC0000100240F82A0008380000203C000020C3
:1021EC0080B487B000AF0023FB600023BB600023EA
:1021FC007B6100237B6000233B611E4B5B68FB60B3
:10220C00FB6803F00C03042B02D0082B03D027E04F
:10221C00194B3B6127E0FB689B0C03F00F03174A3B
:10222C00D35C7B60FB6803F48033002B10D0114B24
:10223C005B685B0C03F00103114AD35CBB607B68E9
:10224C000D4A02FB03F2BB68B2FBF3F37B6104E0C3
:10225C007B680C4A02FB03F37B617B693B6102E008
:10226C00054B3B6100BF3B6918461C37BD4680BC23
:10227C00704700BF0010024000127A00082B0008C3
:10228C00182B000800093D0080B485B000AF7860C1
:10229C000A4B1B680A4AA2FB03235B0A7A6802FBFF
:1022AC0003F3FB6000BFFB685A1EFA60002BF9D1E8
:1022BC0000BF00BF1437BD4680BC704738000020FB
:1022CC00D34D621080B582B000AF78607B68002B74
:1022DC0001D1012341E07B6893F83D30DBB2002B48
:1022EC0006D17B68002283F83C207868FFF72CF835
:1022FC007B68022283F83D207B681A687B68043374
:10230C001946104600F056FA7B68012283F84620E5
:10231C007B68012283F83E207B68012283F83F20F2
:10232C007B68012283F840207B68012283F84120DE
:10233C007B68012283F842207B68012283F84320CA
:10234C007B68012283F844207B68012283F84520B6
:10235C007B68012283F83D20002318460837BD46D0
:10236C0080BD000080B485B000AF78607B6893F8C6
:10237C003D30DBB2012B01D0012335E07B6802221A
:10238C0083F83D207B681B68DA687B681B6842F029
:10239C000102DA607B681B68164A934209D07B689D
:1023AC001B68B3F1804F04D07B681B68124A9342C0
:1023BC0011D17B681B689B6803F00703FB60FB680B
:1023CC00062B10D07B681B681A687B681B6842F070
:1023DC0001021A6007E07B681B681A687B681B683F
:1023EC0042F001021A60002318461437BD4680BC27
:1023FC00704700BF002C01400004004080B584B041
:10240C0000AF78607B681B68DB68FB607B681B68CF
:10241C001B69BB60BB6803F00203002B20D0FB6878
:10242C0003F00203002B1BD07B681B686FF00202C9
:10243C001A617B6801221A777B681B689B6903F021
:10244C000303002B03D0786800F098F905E0786856
:10245C0000F08BF9786800F09AF97B6800221A7703
:10246C00BB6803F00403002B20D0FB6803F00403CB
:10247C00002B1BD07B681B686FF004021A617B6811
:10248C0002221A777B681B689B6903F44073002B4C
:10249C0003D0786800F072F905E0786800F065F90F
:1024AC00786800F074F97B6800221A77BB6803F037
:1024BC000803002B20D0FB6803F00803002B1BD073
:1024CC007B681B686FF008021A617B6804221A771C
:1024DC007B681B68DB6903F00303002B03D078686F
:1024EC0000F04CF905E0786800F03FF9786800F0EE
:1024FC004EF97B6800221A77BB6803F01003002B9F
:10250C0020D0FB6803F01003002B1BD07B681B68EA
:10251C006FF010021A617B6808221A777B681B68BF
:10252C00DB6903F44073002B03D0786800F026F9C4
:10253C0005E0786800F019F9786800F028F97B68F4
:10254C0000221A77BB6803F00103002B0CD0FB6848
:10255C0003F00103002B07D07B681B686FF00102AE
:10256C001A617868FEF7ACFEBB6803F08003002BA1
:10257C000CD0FB6803F08003002B07D07B681B6832
:10258C006FF080021A61786800F06FFABB6803F094
:10259C004003002B0CD0FB6803F04003002B07D04A
:1025AC007B681B686FF040021A61786800F0F8F8DD
:1025BC00BB6803F02003002B0CD0FB6803F0200356
:1025CC00002B07D07B681B686FF020021A617868BB
:1025DC0000F042FA00BF1037BD4680BD80B584B014
:1025EC0000AF786039600023FB737B6893F83C3054
:1025FC00012B01D10223B4E07B68012283F83C203B
:10260C007B68022283F83D207B681B689B68BB605B
:10261C00BB6823F07703BB60BB6823F47F43BB60CC
:10262C007B681B68BA689A603B681B68B3F5005FEF
:10263C003ED0B3F5005F00F28780B3F5805F00F009
:10264C008680B3F5805F7FD8702B1AD0702B7BD827
:10265C00602B50D0602B77D8502B3CD0502B73D89C
:10266C00402B58D0402B6FD8302B64D0302B6BD8EC
:10267C00202B60D0202B67D8002B5CD0102B5AD08D
:10268C0062E07B6818683B6899683B685A683B68ED
:10269C00DB6800F06AF97B681B689B68BB60BB68F1
:1026AC0043F07703BB607B681B68BA689A604FE0A5
:1026BC007B6818683B6899683B685A683B68DB68BC
:1026CC0000F053F97B681B689A687B681B6842F4BE
:1026DC0080429A603CE07B6818683B6859683B68AC
:1026EC00DB681A4600F0CAF87B681B685021184654
:1026FC0000F021F92CE07B6818683B6859683B684E
:10270C00DB681A4600F0E8F87B681B686021184605
:10271C0000F011F91CE07B6818683B6859683B684D
:10272C00DB681A4600F0AAF87B681B684021184643
:10273C0000F001F90CE07B681A683B681B681946CD
:10274C00104600F0F8F803E00123FB7300E000BF33
:10275C007B68012283F83D207B68002283F83C20B3
:10276C00FB7B18461037BD4680BD80B483B000AFEC
:10277C00786000BF0C37BD4680BC704780B483B016
:10278C0000AF786000BF0C37BD4680BC704780B48A
:10279C0083B000AF786000BF0C37BD4680BC70477B
:1027AC0080B483B000AF786000BF0C37BD4680BCEE
:1027BC007047000080B485B000AF786039607B68EA
:1027CC001B68FB607B682B4A934207D07B68B3F194
:1027DC00804F03D07B68284A934208D1FB6823F0D2
:1027EC007003FB603B685B68FA681343FB607B68B3
:1027FC00204A934207D07B68B3F1804F03D07B68AB
:10280C001D4A934208D1FB6823F44073FB603B687C
:10281C00DB68FA681343FB60FB6823F080023B68BB
:10282C005B691343FB607B68FA681A603B689A68C3
:10283C007B68DA623B681A687B689A627B680D4A2F
:10284C00934203D13B681A697B681A637B68012247
:10285C005A617B681B6903F00103002B05D07B6870
:10286C001B6923F001027B681A6100BF1437BD4657
:10287C0080BC7047002C01400004004080B487B03D
:10288C0000AFF860B9607A60FB681B6A7B61FB681B
:10289C001B6A23F00102FB681A62FB689B693B61AF
:1028AC003B6923F0F0033B617B681B013A691343DE
:1028BC003B617B6923F00A037B617A69BB68134334
:1028CC007B61FB683A699A61FB687A691A6200BF9E
:1028DC001C37BD4680BC704780B487B000AFF86031
:1028EC00B9607A60FB681B6A7B61FB681B6A23F02A
:1028FC001002FB681A62FB689B693B613B6923F41D
:10290C0070433B617B681B033A6913433B617B69F2
:10291C0023F0A0037B61BB681B017A6913437B61C5
:10292C00FB683A699A61FB687A691A6200BF1C37C6
:10293C00BD4680BC704780B485B000AF786039600C
:10294C007B689B68FB60FB6823F07003FB603A6854
:10295C00FB68134343F00703FB607B68FA689A60DB
:10296C0000BF1437BD4680BC704780B487B000AF41
:10297C00F860B9607A603B60FB689B687B617B693F
:10298C0023F47F437B613B681A027B681A43BB6864
:10299C0013437A6913437B61FB687A699A6000BFC1
:1029AC001C37BD4680BC704780B485B000AF7860E2
:1029BC0039607B6893F83C30012B01D1022341E054
:1029CC007B68012283F83C207B68022283F83D203F
:1029DC007B681B685B68FB607B681B689B68BB60E3
:1029EC00FB6823F07003FB603B681B68FA681343B9
:1029FC00FB607B681B68FA685A607B681B68144A2A
:102A0C00934209D07B681B68B3F1804F04D07B687C
:102A1C001B68104A93420CD1BB6823F08003BB6047
:102A2C003B685B68BA681343BB607B681B68BA6819
:102A3C009A607B68012283F83D207B68002283F832
:102A4C003C20002318461437BD4680BC704700BF9D
:102A5C00002C01400004004080B483B000AF7860CB
:102A6C0000BF0C37BD4680BC704780B483B000AF4C
:102A7C00786000BF0C37BD4680BC704770B500262F
:102A8C000C4D0D4C641BA410A64209D100F022F889
:102A9C0000260A4D0A4C641BA410A64205D170BD39
:102AAC0055F8043B98470136EEE755F8043B984738
:102ABC000136F2E71C2B00081C2B00081C2B00080D
:102ACC00202B000803460244934200D1704703F8C0
:102ADC00011BF9E7F8B500BFF8BC08BC9E4670476F
:0C2AEC00F8B500BFF8BC08BC9E4670475F
:102AF80000000000000000000102030406070809A6
:102B080002030405060708090A0B0C0D0E0F101026
:042B180001020000B6
:042B1C00310100087B
:042B20000D0100089B
:102B2400010000000100000001000000010000009D
:102B3400010000000100000001000000010000008D
:102B4400010000000100000001000000010000007D
:102B5400F40100000400000000127A0010000000DC
:042B6400010000006C
:040000050800146972
:00000001FF
