:020000040800F2
:1000000000280020551C0008E51B0008EB1B000819
:10001000F11B0008F71B0008FD1B00080000000092
:10002000000000000000000000000000031C0008A9
:100030000F1C0008000000001B1C0008271C000803
:100040009D1C00089D1C00089D1C00089D1C0008AC
:100050009D1C00089D1C00089D1C00089D1C00089C
:100060009D1C00089D1C00089D1C00089D1C00088C
:100070009D1C00089D1C00089D1C00089D1C00087C
:100080009D1C00089D1C00089D1C00089D1C00086C
:100090009D1C00089D1C00089D1C00089D1C00085C
:1000A0009D1C00089D1C00089D1C00089D1C00084C
:1000B000351C00089D1C0008000000009D1C000865
:1000C0009D1C000800000000000000009D1C0008AE
:1000D000000000009D1C00089D1C0008000000009E
:1000E0009D1C00089D1C00089D1C000800000000CD
:1000F0000000000000000000000000000000000000
:0C01000000000000000000005FF808F1A3
:10010C0010B5054C237833B9044B13B10448AFF345
:10011C0000800123237010BD50000020000000005F
:10012C00CC32000808B5034B1BB103490348AFF3AD
:10013C00008008BD0000000054000020CC320008F4
:10014C0080B582B000AF7860012201219F4802F097
:10015C00A2F8012202219D4802F09DF801220421FF
:10016C009A4802F098F801220821984802F093F876
:10017C0001221021954802F08EF80122202193488B
:10018C0002F089F801224021904802F084F87B6843
:10019C00092B00F2168101A252F823F0D1010008BC
:1001AC000F02000825020008590200088D02000801
:1001BC00B7020008EB0200082903000849030008F5
:1001CC009103000800220121804802F064F800220B
:1001DC0002217E4802F05FF8002204217B4802F0E5
:1001EC005AF800220821794802F055F80022102113
:1001FC00764802F050F800222021744802F04BF8A7
:10020C00E0E000220221714802F045F800220421AE
:10021C006E4802F040F8D5E0002201216B4802F054
:10022C003AF800220221694802F035F80022082130
:10023C00664802F030F800221021644802F02BF8D6
:10024C0000224021614802F026F8BBE00022012187
:10025C005E4802F020F8002202215C4802F01BF8F4
:10026C0000220421594802F016F8002208215748B0
:10027C0002F011F800224021544802F00CF8A1E0E1
:10028C0000220221514802F006F8002204214F48B6
:10029C0002F001F8002220214C4801F0FCFF002262
:1002AC0040214A4801F0F7FF8CE000220121474829
:1002BC0001F0F1FF00220421444801F0ECFF002280
:1002CC000821424801F0E7FF002220213F4801F0BD
:1002DC00E2FF002240213D4801F0DDFF72E00022E8
:1002EC0001213A4801F0D7FF00220421374801F0E0
:1002FC00D2FF00220821354801F0CDFF0022102149
:10030C00324801F0C8FF00222021304801F0C3FF21
:10031C00002240212D4801F0BEFF53E000220121B4
:10032C002A4801F0B8FF00220221284801F0B3FF4F
:10033C0000220421254801F0AEFF43E000220121F8
:10034C00224801F0A8FF00220221204801F0A3FF5F
:10035C00002204211D4801F09EFF002208211B48A9
:10036C0001F099FF00221021184801F094FF00229F
:10037C002021164801F08FFF00224021134801F084
:10038C008AFF1FE000220121104801F084FF0022A7
:10039C0002210E4801F07FFF002204210B4801F0DE
:1003AC007AFF00220821094801F075FF0022202164
:1003BC00064801F070FF00224021044801F06BFF59
:1003CC0000E000BF00BF0837BD4680BD000C0140F7
:1003DC0080B582B000AF786001228021B74801F06F
:1003EC005AFF01224FF48071B44801F054FF0122EE
:1003FC004FF40071B14801F04EFF01224FF48061BF
:10040C00AE4801F048FF01224FF40061AB4801F007
:10041C0042FF01224FF48051A84801F03CFF012219
:10042C004FF40051A54801F036FF7B68092B00F210
:10043C003F8101A252F823F06D040008B5040008B6
:10044C00CF0400080B0500084705000879050008D3
:10045C00B5050008FD050008210600087506000812
:10046C0000228021954801F016FF00224FF4807184
:10047C00924801F010FF00224FF400718F4801F0F8
:10048C000AFF00224FF480618C4801F004FF002227
:10049C004FF40061894801F0FEFE00224FF48051B8
:1004AC00864801F0F8FE04E100224FF48071834885
:1004BC0001F0F1FE00224FF40071804801F0EBFED8
:1004CC00F7E0002280217D4801F0E5FE00224FF488
:1004DC0080717A4801F0DFFE00224FF4806177488A
:1004EC0001F0D9FE00224FF40061744801F0D3FEF4
:1004FC0000224FF40051714801F0CDFED9E00022EA
:10050C0080216E4801F0C7FE00224FF480716B48C9
:10051C0001F0C1FE00224FF40071684801F0BBFEEF
:10052C0000224FF48061654801F0B5FE00224FF4C3
:10053C000051624801F0AFFEBBE000224FF4807125
:10054C005E4801F0A8FE00224FF400715B4801F0F8
:10055C00A2FE00224FF48051584801F09CFE00226C
:10056C004FF40051554801F096FEA2E00022802184
:10057C00524801F090FE00224FF400714F4801F0F8
:10058C008AFE00224FF480614C4801F084FE002268
:10059C004FF48051494801F07EFE00224FF4005187
:1005AC00464801F078FE84E000228021434801F0A7
:1005BC0072FE00224FF40071404801F06CFE0022E4
:1005CC004FF480613D4801F066FE00224FF400615B
:1005DC003A4801F060FE00224FF48051374801F098
:1005EC005AFE00224FF40051344801F054FE60E0F2
:1005FC0000228021314801F04EFE00224FF4807120
:10060C002E4801F048FE00224FF400712B4801F0F7
:10061C0042FE4EE000228021284801F03CFE0022E0
:10062C004FF48071254801F036FE00224FF4007122
:10063C00224801F030FE00224FF480611F4801F087
:10064C002AFE00224FF400611C4801F024FE002217
:10065C004FF48051194801F01EFE00224FF4005156
:10066C00164801F018FE24E000228021134801F006
:10067C0012FE00224FF48071104801F00CFE002293
:10068C004FF400710D4801F006FE00224FF480611A
:10069C000A4801F000FE00224FF48051074801F097
:1006AC00FAFD00224FF40051044801F0F4FD00E083
:1006BC0000BF00BF0837BD4680BD00BF000C014025
:1006CC0080B400AF064B1B68012B04D1044B0022F5
:1006DC001A60012300E000231846BD4680BC704719
:1006EC006C00002080B400AF064B1B68012B04D1BA
:1006FC00044B00221A60012300E000231846BD467B
:10070C0080BC70477000002080B400AF064B1B68A3
:10071C00012B04D1044B00221A60012300E00023BA
:10072C001846BD4680BC70477400002080B500AFF1
:10073C00684B1B68684A1360684B1B68654A1360FA
:10074C004FF48071664801F08FFD03461A46634BE7
:10075C001A60644B1B68644A1360644B1B68614AE3
:10076C0013604FF400715E4801F07EFD03461A469B
:10077C005E4B1A605E4B1B685E4A13605E4B1B68D7
:10078C005B4A13604FF48061554801F06DFD0346E0
:10079C001A46594B1A60504B1A684E4B1B689A42BA
:1007AC002DD14C4B1A684D4B1B689A4227D1534B99
:1007BC001A684A4B1B689A420ED0484B1B684F4A2A
:1007CC001360464B1B68002B19D14D4BC8221A6085
:1007DC004C4B01221A6012E0494B1B68013B484A02
:1007EC001360474B1B68002B09D1454BC8221A607C
:1007FC003A4B1B68002B02D1424B01221A603A4B38
:10080C001A68384B1B689A422DD1364B1A68374BF5
:10081C001B689A4227D13C4B1A68344B1B689A428E
:10082C000ED0324B1B68384A1360304B1B68002BC0
:10083C0019D1334BC8221A60344B01221A6012E0D2
:10084C002F4B1B68013B2E4A13602D4B1B68002B52
:10085C0009D12B4BC8221A60244B1B68002B02D1E8
:10086C002A4B01221A60234B1A68214B1B689A42AF
:10087C002DD11F4B1A68204B1B689A4227D1244B51
:10088C001A681D4B1B689A420ED01B4B1B68204AE2
:10089C001360194B1B68002B19D1194BC8221A6015
:1008AC001C4B01221A6012E0154B1B68013B144AC9
:1008BC001360134B1B68002B09D1114BC8221A6013
:1008CC000D4B1B68002B02D1124B01221A6000BF8A
:1008DC0080BD00BF040000200000002008000020A4
:1008EC000008014014000020100000201800002017
:1008FC002400002020000020280000200C000020F4
:10090C00300000206C0000201C0000207000002033
:10091C002C0000207400002080B582B002AF544B34
:10092C001B68002B02D0012B4AD09EE0514B1B6858
:10093C00514A1168514A1268184600F03BFB4D4B66
:10094C001A684D4B1B68019306230093172305214E
:10095C00162000F045FD01224FF40061484801F0DB
:10096C009AFC01224FF48051454801F094FC01227D
:10097C004FF40051424801F08EFC01224FF48041AB
:10098C003F4801F088FC3C4B1B683A4A1268114600
:10099C00184600F0D9FBFFF793FE0346012B61D1FB
:1009AC0000224FF48051364801F075FC0120FFF70E
:1009BC000FFD2F4B01221A60324B04221A6051E0BA
:1009CC00304B1B68002B04DD2E4B1B68013B2D4A62
:1009DC0013602C4B1B68002B19D100F05DFC2A4BCB
:1009EC001B68013B284A1360274B1B68002B0BD15B
:1009FC00204B1B68214A11681F4A1268184600F0E8
:100A0C0019FD214B04221A601E4B01221A60FFF7BC
:100A1C0057FE0346012B27D1154B02221A600122E7
:100A2C004FF40061164801F036FC00224FF480515F
:100A3C00134801F030FC01224FF40051104801F032
:100A4C002AFC01224FF480410D4801F024FC0220C5
:100A5C00FFF7BEFC00F0C8FA00F01EFB094B0222A7
:100A6C001A6001E000BF00E000BF00BFBD4680BDC2
:100A7C0084000020380000203C00002040000020B2
:100A8C0000080140B40000203400002080B500AF05
:100A9C007F4B1B68042B00F0A580042B00F3F58022
:100AAC00022B02D0032B4FD0EFE07A4B1B68002BAC
:100ABC0004DD784B1B68013B764A1360754B1B6851
:100ACC00002B0AD10421744801F0FDFB202172484F
:100ADC0001F0F9FB6F4B02221A60FFF7F1FD0346A0
:100AEC00012B24D16A4B03221A6001224FF40061BE
:100AFC00694801F0D0FB00224FF48051664801F0A8
:100B0C00CAFB01224FF40051634801F0C4FB0122DF
:100B1C004FF48041604801F0BEFB0320FFF758FC06
:100B2C0000F062FA00F0B8FA5A4B02221A60FFF792
:100B3C00D9FD0346012B40F0A380554B08221A60C7
:100B4C00544B01221A609BE0524B1B68002B04DDB6
:100B5C00504B1B68013B4F4A13604E4B1B68002BDC
:100B6C000AD110214C4801F0AEFB80214A4801F01B
:100B7C00AAFB484B02221A60FFF7A2FD0346012B89
:100B8C0024D1434B04221A6001224FF400614248E5
:100B9C0001F081FB00224FF480513F4801F07BFBB8
:100BAC0001224FF400513C4801F075FB01224FF437
:100BBC008041394801F06FFB0420FFF709FC00F07D
:100BCC0013FA00F069FA334B02221A60FFF78AFD20
:100BDC000346012B56D12E4B0A221A602D4B0122B3
:100BEC001A604FE02B4B1B68002B04DD294B1B6854
:100BFC00013B284A1360274B1B68002B0AD10821A4
:100C0C00254801F060FB4021234801F05CFB214B9F
:100C1C0002221A60FFF754FD0346012B24D11C4B12
:100C2C0001221A6001224FF400611B4801F033FBD2
:100C3C0000224FF48051184801F02DFB01224FF493
:100C4C000051154801F027FB01224FF48041124856
:100C5C0001F021FB0120FFF7BBFB00F0C5F900F010
:100C6C001BFA0C4B01221A60FFF73CFD0346012BCB
:100C7C000AD1074B0C221A60064B01221A6003E0C2
:100C8C0000BF02E000BF00E000BF00BF80BD00BF9E
:100C9C0084000020B40000200008014080B500AFA3
:100CAC002E4B1B680D2B38D00D2B54DC092B02D08E
:100CBC000B2B19D04FE02A4B1B68002B04DD284B63
:100CCC001B68013B264A1360264B1B68254A1360A0
:100CDC0000F08AF900F0E0F9214B1B68002B35D1AC
:100CEC001E4B00221A6031E01D4B1B68002B04DDEB
:100CFC001B4B1B68013B1A4A13601B4B1B681A4A9F
:100D0C00136000F071F900F0C7F9154B1B68002B4C
:100D1C001ED1124B00221A601AE0114B1B68002BDB
:100D2C0004DD0F4B1B68013B0D4A13600F4B1B6816
:100D3C000E4A136000F058F900F0AEF9084B1B682E
:100D4C00002B07D1054B00221A6003E000BF02E024
:100D5C0000BF00E000BF00BF80BD00BF84000020CA
:100D6C00B4000020380000203C000020400000208F
:100D7C0080B500AF834B1B680C2B00F0AB800C2BA9
:100D8C0000F3FE80082B02D00A2B52D0F8E07E4BE9
:100D9C001B68002B04DD7C4B1B68013B7A4A1360FB
:100DAC00794B1B68002B19D1784B1B680133774AA0
:100DBC001360774800F0D2FA744B1B68022B0AD1EF
:100DCC000421744801F07FFA2021724801F07BFA6B
:100DDC006E4B00221A606C4B01221A60FFF782FCEA
:100DEC000346012B13D16C4B1B68062B03DD6A4B9E
:100DFC001B68002B0BDD684B1B680133664A1360C4
:100E0C00654B1B68072B02D1634B01221A60624BA6
:100E1C001B68184600F0D4F9FFF776FC0346012B4B
:100E2C0040F0A980574B09221A60574B04221A60D4
:100E3C00A1E0554B1B68002B04DD534B1B68013B99
:100E4C00514A1360504B1B68002B19D1534B1B6834
:100E5C000133524A1360524800F080FA4F4B1B6822
:100E6C00022B0AD110214B4801F02DFA8021494860
:100E7C0001F029FA494B00221A60434B01221A60F7
:100E8C00FFF730FC0346012B13D1464B1B68062B96
:100E9C0003DD444B1B68002B0BDD424B1B680133FD
:100EAC00404A13603F4B1B68072B02D13D4B01227C
:100EBC001A603C4B1B68184600F0A6F9FFF724FC9F
:100ECC000346012B59D12F4B0B221A602E4B0422B7
:100EDC001A6052E02C4B1B68002B04DD2A4B1B685C
:100EEC00013B294A1360284B1B68002B19D12E4B50
:100EFC001B6801332C4A13602C4800F02FFA2A4B44
:100F0C001B68022B0AD10821224801F0DCF9402190
:100F1C00204801F0D8F9244B00221A601A4B012208
:100F2C001A60FFF7DFFB0346012B13D1204B1B6824
:100F3C00062B03DD1E4B1B68002B0BDD1C4B1B68AB
:100F4C0001331B4A13601A4B1B68072B02D1184B39
:100F5C0001221A60164B1B68184600F079F9FFF74E
:100F6C00D3FB0346012B0AD1064B0D221A60064B0C
:100F7C0004221A6003E000BF02E000BF00E000BFE3
:100F8C0000BF80BD84000020B40000207800002049
:100F9C009C00002000080140380000207C0000204C
:100FAC00AC0000203C00002080000020A4000020A9
:100FBC004000002080B485B000AFF860B9607A6062
:100FCC00064AFB681360064ABB681360054A7B68D7
:100FDC00136000BF1437BD4680BC7047380000203A
:100FEC003C0000204000002080B500AF00222021F2
:100FFC00074801F050F900228021054801F04BF917
:10100C0000224021024801F046F900BF80BD00BF1C
:10101C000008014080B500AF01222021074801F0F3
:10102C003AF900228021054801F035F900224021CF
:10103C00024801F030F900BF80BD00BF000801403C
:10104C0080B500AF00222021074801F024F90122CD
:10105C008021054801F01FF900224021024801F0CF
:10106C001AF900BF80BD00BF0008014080B500AF79
:10107C0000222021074801F00EF9002280210548AA
:10108C0001F009F901224021024801F004F900BFE6
:10109C0080BD00BF0008014080B500AF00220421D4
:1010AC00074801F0F8F800221021054801F0F3F888
:1010BC0000220821024801F0EEF800BF80BD00BFFD
:1010CC000008014080B500AF01220421074801F05F
:1010DC00E2F800221021054801F0DDF80022082179
:1010EC00024801F0D8F800BF80BD00BF00080140E5
:1010FC0080B500AF00220421074801F0CCF8012292
:10110C001021054801F0C7F800220821024801F01F
:10111C00C2F800BF80BD00BF0008014080B500AF21
:10112C0000220421074801F0B6F8002210210548DE
:10113C0001F0B1F801220821024801F0ACF800BF1F
:10114C0080BD00BF0008014080B483B000AF786060
:10115C0039607B68184A82FB03129210DB17D31A92
:10116C00164A13607968144B83FB01239A10CB1732
:10117C00D21A13469B0013445B00CA1A0F4B5A60D9
:10118C003B680D4A82FB03129210DB17D31A0B4AF1
:10119C0093603968084B83FB01239A10CB17D21A42
:1011AC0013469B0013445B00CA1A044BDA6000BF61
:1011BC000C37BD4680BC7047676666668C000020A5
:1011CC0080B483B000AF78607B680D4A82FB031259
:1011DC009210DB17D31A0B4A13607968084B83FB08
:1011EC0001239A10CB17D21A13469B0013445B00B1
:1011FC00CA1A044B5A6000BF0C37BD4680BC7047FE
:10120C00676666669C00002080B483B000AF78608F
:10121C007B680D4A82FB03129210DB17D31A0B4A20
:10122C0013607968084B83FB01239A10CB17D21AF1
:10123C0013469B0013445B00CA1A044B5A6000BF50
:10124C000C37BD4680BC704767666666AC000020F4
:10125C0080B483B000AF78607B680D4A82FB0312C8
:10126C009210DB17D31A0B4A13607968084B83FB77
:10127C0001239A10CB17D21A13469B0013445B0020
:10128C00CA1A044B5A6000BF0C37BD4680BC70476D
:10129C0067666666A400002080B500AF2C4B1B6807
:1012AC00002B02D0012B23D045E000224FF400612B
:1012BC00284800F0F0FF01224FF48051254800F03F
:1012CC00EAFF00224FF40051224800F0E4FF012213
:1012DC004FF480411F4800F0DEFF1F4B1B6818467F
:1012EC00FFF776F81C4B9B681846FEF729FF22E0A7
:1012FC0001224FF40061174800F0CDFF00224FF49B
:10130C008051144800F0C7FF01224FF400511148DE
:10131C0000F0C1FF00224FF480410E4800F0BBFFEB
:10132C000D4B5B681846FFF753F80B4BDB68184600
:10133C00FEF706FF00BF064B1B680133002B03F0C2
:10134C000103B8BF5B42024A136000BF80BD00BFFF
:10135C0088000020000801408C00002080B582B07D
:10136C0000AF78601C4B1B68002B02D0012B12D0F5
:10137C0024E000224FF40051184800F08CFF0122A9
:10138C004FF48041154800F086FF7B681B681846B7
:10139C00FEF7D6FE12E001224FF400510F4800F088
:1013AC007AFF00224FF480410C4800F074FF7B68F8
:1013BC0004331B681846FEF7C3FE00BF064B1B68C0
:1013CC000133002B03F00103B8BF5B42024A1360E8
:1013DC0000BF0837BD4680BD8800002000080140D2
:1013EC0080B485B000AFF860B9607A603B600B4A9E
:1013FC00FB6813600A4A3B6813600A4AFB69136076
:10140C00094A7B681360094ABB681360084ABB69C8
:10141C00136000BF1437BD4680BC7047D800002055
:10142C00C8000020D4000020CC000020D0000020F8
:10143C00C400002080B584B000AFF860B9607A6059
:10144C00804B1B68002B09DC7F4B1B68172B05D1CD
:10145C007C4ABB6813607C4B18221A60794B1B6862
:10146C00002B09DC784B1B68182B05D1754AFB68DF
:10147C001360754B16221A60724B1B68002B09DC2B
:10148C00714B1B68162B05D16E4A7B6813606E4B33
:10149C0017221A606D4B1B68002B09DC6C4B1B6808
:1014AC00162B05D1694A7B681360694B17221A60A9
:1014BC00664B1B68002B09DC654B1B68172B05D191
:1014CC00624ABB681360624B18221A605F4B1B6840
:1014DC00002B09DC5E4B1B68182B05D15B4AFB68A3
:1014EC0013605B4B16221A60564B1B685A1E5549EB
:1014FC000A60564A1268511E54480160114618463B
:10150C00FFF722FE534B1B68062B06D1FFF7F0FDAD
:10151C00514B1B680133504A13604E4B1B68072B11
:10152C0006D1FFF7FBFD4C4B1B6801334A4A136095
:10153C00484B1B68052B06D1FFF7C4FD464B1B68B7
:10154C000133454A1360444B1B687A689A4209D1AF
:10155C00404B1B68062B05D13E4B07221A603E4BB5
:10156C0000221A603C4B1B68BA689A4209D1394B6D
:10157C001B68072B05D1374B05221A60364B00220E
:10158C001A60354B1B68FA689A4209D1314B1B68BB
:10159C00052B05D12F4B06221A602F4B00221A6007
:1015AC002E4B1B68052B06D1FFF734FD2C4B1B680B
:1015BC0001332B4A1360294B1B68072B06D1FFF70D
:1015CC0055FD274B1B680133254A1360234B1B68C1
:1015DC00062B06D1FFF734FD214B1B680133204A43
:1015EC0013601F4B1B68FA689A4209D11B4B1B688E
:1015FC00052B05D1194B06221A60194B00221A60D3
:10160C00174B1B687A689A4209D1144B1B68062B3E
:10161C0005D1124B07221A60114B00221A60104B95
:10162C001B68BA689A4209D10C4B1B68072B05D171
:10163C000A4B05221A600A4B00221A6000BF1037B1
:10164C00BD4680BDD4000020C8000020CC00002086
:10165C00D8000020C4000020BC000020D0000020D6
:10166C00B800002080B500AF00F014FB00F028F8A3
:10167C0000F0AEF800F060F80C4801F069FA19229D
:10168C0019210B4800F04CF919221921094800F0D6
:10169C0047F919221921084800F042F91922192199
:1016AC00064800F03DF900F0F1F9FCE7DC00002001
:1016BC0025090008990A0008A90C00087D0D0008EE
:1016CC0080B590B000AF07F118032822002118460E
:1016DC0001F0EEFD3B1D00221A605A609A60DA6040
:1016EC001A610223BB610123BB621023FB6200233E
:1016FC007B6307F11803184600F0FEFD0346002B30
:10170C0001D000F0D5F80F237B600023BB600023D1
:10171C00FB6000233B6100237B613B1D00211846CD
:10172C0001F06AF80346002B01D000F0C1F800BFAD
:10173C004037BD4680BD000080B586B000AF07F1D4
:10174C00080300221A605A609A60DA603B46002255
:10175C001A605A601D4B4FF080421A601B4B41F6C9
:10176C003F725A60194B00229A60184B0922DA60BA
:10177C00164B00221A61154B00229A61134801F096
:10178C0097F90346002B01D000F092F84FF48053E8
:10179C00BB6007F1080319460C4801F015FB034622
:1017AC00002B01D000F084F800233B6000237B6009
:1017BC003B461946054801F0EDFC0346002B01D0D1
:1017CC0000F076F800BF1837BD4680BDDC00002065
:1017DC0080B586B000AF07F1080300221A605A608A
:1017EC009A60DA60294B9B69284A43F004039361A1
:1017FC00264B9B6903F004037B607B68234B9B693E
:10180C00224A43F008039361204B9B6903F00803C1
:10181C003B603B68002247F6FC011D4800F03BFD95
:10182C00002243F6FF711B4800F035FD47F6FC0320
:10183C00BB600123FB6000233B6102237B6107F14A
:10184C0008031946124800F095FB43F6FF73BB6082
:10185C000123FB6000233B6102237B6107F108033A
:10186C0019460C4800F086FB4FF4E063BB60002384
:10187C00FB6001233B6107F108031946044800F0A3
:10188C0079FB00BF1837BD4680BD00BF0010024079
:10189C0000080140000C014080B582B000AF7860B8
:1018AC00FEF744FF00F092F800BF0837BD4680BD3C
:1018BC0080B400AF72B600BFFEE7000080B483B006
:1018CC0000AF786015497A6813469B0013449B005F
:1018DC000B4400221A6011497A6813469B0013448A
:1018EC009B000B44043300221A600C497A6813469F
:1018FC009B0013449B000B44083300221A600749D9
:10190C007A6813469B0013449B000B440C33002253
:10191C001A7000BF0C37BD4680BC704724010020F4
:10192C0080B485B000AFF860B9607A60254B1B7845
:10193C00272B3CD8234B1B781946234A0B469B007C
:10194C000B449B001344FA681A601E4B1B78194613
:10195C001D4A0B469B000B449B0013440433BA688E
:10196C001A60184B1B781946174A0B469B000B4400
:10197C009B00134408337A681A60124B1B78194683
:10198C00114A0B469B000B449B0013440C33002262
:10199C001A700C4B1A780B4B1B78194610460A4AD6
:1019AC000B469B000B449B00134410331860054BF3
:1019BC001B780133DAB2034B1A7000BF1437BD46E3
:1019CC0080BC7047C00000202401002080B483B08C
:1019DC0000AF00237B6048E02A497A6813469B00DD
:1019EC0013449B000B4404331B68002B13D0254974
:1019FC007A6813469B0013449B000B4404331B680A
:101A0C00591E20487A6813469B0013449B000344DC
:101A1C000433196026E01B497A6813469B00134473
:101A2C009B000B440833196816487A6813469B00D0
:101A3C0013449B0003440433196012497A6813461B
:101A4C009B0013449B000B440C331B780133D8B21E
:101A5C000C497A6813469B0013449B000B440C33CF
:101A6C0002461A707B6801337B60074B1B781A4661
:101A7C007B689342B0DB00BF00BF0C37BD4680BC17
:101A8C00704700BF24010020C000002080B582B048
:101A9C0000AF00237B603AE022497A6813469B0032
:101AAC0013449B000B440C331B78002B1DD01D4999
:101ABC007A6813469B0013449B000B441B689847A1
:101ACC0018497A6813469B0013449B000B440C3353
:101ADC001B78013BD8B213497A6813469B00134418
:101AEC009B000B440C3302461A700E497A6813465D
:101AFC009B0013449B000B4408331B68002B03D141
:101B0C007B681846FFF7DAFE7B6801337B60064B77
:101B1C001B781A467B689342BEDB00BF00BF0837B8
:101B2C00BD4680BD24010020C000002080B485B0DB
:101B3C0000AF154B9B69144A43F001039361124BA0
:101B4C009B6903F00103BB60BB680F4BDB690E4A5A
:101B5C0043F08053D3610C4BDB6903F080537B6003
:101B6C007B680A4B5B68FB60FB6823F0E063FB60FF
:101B7C00FB6843F08063FB60044AFB68536000BF62
:101B8C001437BD4680BC7047001002400000014075
:101B9C0080B584B000AF78607B681B68B3F1804F70
:101BAC0013D10C4BDB690B4A43F00103D361094B96
:101BBC00DB6903F00103FB60FB68002200211C20A1
:101BCC0000F0A1F91C2000F0BAF900BF1037BD4697
:101BDC0080BD00BF0010024080B400AFFEE780B4AF
:101BEC0000AFFEE780B400AFFEE780B400AFFEE7C5
:101BFC0080B400AFFEE780B400AF00BFBD4680BC30
:101C0C00704780B400AF00BFBD4680BC704780B445
:101C1C0000AF00BFBD4680BC704780B500AF00F080
:101C2C007FF800BF80BD000080B500AF024800F017
:101C3C00DBFF00BF80BD00BFDC00002080B400AF24
:101C4C0000BFBD4680BC7047FFF7F8FF0B480C493E
:101C5C000C4A002302E0D458C4500433C4188C42FC
:101C6C00F9D3094A094C002301E013600432A24263
:101C7C00FBD301F0F9FAFFF7F5FC704700000020E8
:101C8C0050000020103300085000002048040020B1
:101C9C00FEE7000080B500AF084B1B68074A43F015
:101CAC0010031360032000F023F90F2000F008F854
:101CBC00FFF73CFF0023184680BD00BF0020024008
:101CCC0080B582B000AF7860124B1A68124B1B784B
:101CDC0019464FF47A73B3FBF1F3B2FBF3F31846E6
:101CEC0000F03BF90346002B01D001230EE07B688A
:101CFC000F2B0AD8002279684FF0FF3000F003F95F
:101D0C00064A7B681360002300E00123184608375D
:101D1C00BD4680BD440000204C000020480000203F
:101D2C0080B400AF054B1B781A46054B1B68134457
:101D3C00034A136000BFBD4680BC70474C000020B6
:101D4C004404002080B400AF024B1B681846BD460B
:101D5C0080BC70474404002080B485B000AF78602C
:101D6C007B6803F00703FB600C4BDB68BB60BA6855
:101D7C004FF6FF031340BB60FB681A02BB681343AA
:101D8C0043F0BF6343F40033BB60044ABB68D360C9
:101D9C0000BF1437BD4680BC704700BF00ED00E0AB
:101DAC0080B400AF044BDB681B0A03F00703184632
:101DBC00BD4680BC704700BF00ED00E080B483B02E
:101DCC0000AF0346FB7197F90730002B0BDBFB7957
:101DDC0003F01F02064997F907305B09012000FA4E
:101DEC0002F241F8232000BF0C37BD4680BC70477F
:101DFC0000E100E080B483B000AF03463960FB71B2
:101E0C0097F90730002B0ADB3B68DAB20C4997F9DB
:101E1C0007301201D2B20B4483F800230AE03B686E
:101E2C00DAB20849FB7903F00F03043B1201D2B27A
:101E3C000B441A7600BF0C37BD4680BC704700BF00
:101E4C0000E100E000ED00E080B489B000AFF86084
:101E5C00B9607A60FB6803F00703FB61FB69C3F1AF
:101E6C000703042B28BF0423BB61FB690433062B37
:101E7C0002D9FB69033B00E000237B614FF0FF328A
:101E8C00BB6902FA03F3DA43BB681A407B699A40D8
:101E9C004FF0FF317B6901FA03F3D9437B680B40A8
:101EAC00134318462437BD4680BC704780B582B0BA
:101EBC0000AF78607B68013BB3F1807F01D30123D5
:101ECC000FE00A4A7B68013B53600F214FF0FF3053
:101EDC00FFF790FF054B00229A60044B07221A6013
:101EEC00002318460837BD4680BD00BF10E000E057
:101EFC0080B582B000AF78607868FFF72DFF00BF27
:101F0C000837BD4680BD80B586B000AF0346B960CA
:101F1C007A60FB7300237B61FFF742FF78617A687C
:101F2C00B9687869FFF790FF024697F90F301146B0
:101F3C001846FFF75FFF00BF1837BD4680BD80B560
:101F4C0082B000AF0346FB7197F907301846FFF7D4
:101F5C0035FF00BF0837BD4680BD80B582B000AFED
:101F6C0078607868FFF7A2FF034618460837BD462D
:101F7C0080BD000080B48BB000AF78603960002366
:101F8C007B6200233B6248E101227B6A02FA03F385
:101F9C00FB613B681B68FA691340BB61BA69FB695A
:101FAC009A4240F037813B685B68A34A93425ED00B
:101FBC00A14A934275D8A14A934258D09F4A934262
:101FCC006FD89F4A934252D09D4A934269D89D4AFA
:101FDC0093424CD09B4A934263D89B4A934246D03F
:101FEC00994A93425DD8122B2AD8122B59D801A2A8
:101FFC0052F823F07B2000085520000867200008C9
:10200C00A9200008AF200008AF200008AF2000086E
:10201C00AF200008AF200008AF200008AF20000858
:10202C00AF200008AF200008AF200008AF20000848
:10203C00AF200008AF2000085D20000871200008C8
:10204C00824A934213D02CE03B68DB683B6229E068
:10205C003B68DB6804333B6224E03B68DB68083395
:10206C003B621FE03B68DB680C333B621AE03B6869
:10207C009B68002B02D104233B6213E03B689B68F6
:10208C00012B05D108233B627B68FA691A6109E0D0
:10209C0008233B627B68FA695A6103E000233B62C8
:1020AC0000E000BFBB69FF2B01D87B6801E07B68B7
:1020BC0004337B61BB69FF2B02D87B6A9B0002E077
:1020CC007B6A083B9B003B617B691A680F213B696B
:1020DC0001FA03F3DB431A40396A3B6901FA03F353
:1020EC001A437B691A603B685B6803F08053002BD2
:1020FC0000F09080564B9B69554A43F00103936165
:10210C00534B9B6903F00103BB60BB68514A7B6A6C
:10211C009B08023352F82330FB607B6A03F0030305
:10212C009B000F2202FA03F3DB43FA681340FB60B7
:10213C007B68494A93420DD07B68484A934207D04A
:10214C007B68474A934201D1022304E0032302E057
:10215C00012300E000237A6A02F00302920093400C
:10216C00FA681343FB603B497B6A9B080233FA68AD
:10217C0041F823203B685B6803F48013002B06D0E6
:10218C00384B9A683749BB6913438B6006E0354B73
:10219C009A68BB69DB43334913408B603B685B68CF
:1021AC0003F40013002B06D02E4BDA682D49BB69C3
:1021BC001343CB6006E02B4BDA68BB69DB43294940
:1021CC001340CB603B685B6803F40033002B06D0F4
:1021DC00244B5A682349BB6913434B6006E0214BDF
:1021EC005A68BB69DB431F4913404B603B685B6813
:1021FC0003F48033002B06D01A4B1A681949BB69BB
:10220C0013430B6006E0174B1A68BB69DB43154997
:10221C0013400B607B6A01337B623B681A687B6AF4
:10222C0022FA03F3002B7FF4AFAE00BF00BF2C37B4
:10223C00BD4680BC704700BF00003210000031105A
:10224C0000002210000021100000121000001110DC
:10225C00001002400000014000080140000C014049
:10226C00001001400004014080B485B000AF7860DC
:10227C000B467B807B689A687B881340002B02D0CE
:10228C000123FB7301E00023FB73FB7B184614371F
:10229C00BD4680BC704780B483B000AF78600B46FD
:1022AC007B8013467B707B78002B03D07A887B680D
:1022BC001A6103E07B881A047B681A6100BF0C3733
:1022CC00BD4680BC704780B485B000AF78600B46CB
:1022DC007B807B68DB68FB607A88FB6813401A04A0
:1022EC00FB68D9437B880B401A437B681A6100BF9B
:1022FC001437BD4680BC704780B586B000AF78609F
:10230C007B68002B01D101236CE27B681B6803F016
:10231C000103002B00F08780924B5B6803F00C03E9
:10232C00042B0CD08F4B5B6803F00C03082B12D1E1
:10233C008C4B5B6803F48033B3F5803F0BD1894B36
:10234C001B6803F40033002B6CD07B685B68002B9C
:10235C0068D1012346E27B685B68B3F5803F06D108
:10236C00804B1B687F4A43F4803313602EE07B68FC
:10237C005B68002B0CD17B4B1B687A4A23F48033AF
:10238C001360784B1B68774A23F4802313601DE09D
:10239C007B685B68B3F5A02F0CD1724B1B68714A3C
:1023AC0043F4802313606F4B1B686E4A43F48033F5
:1023BC0013600BE06B4B1B686A4A23F48033136089
:1023CC00684B1B68674A23F4802313607B685B6847
:1023DC00002B13D0FFF7B6FC386108E0FFF7B2FC16
:1023EC0002463B69D31A642B01D90323FAE15D4BF6
:1023FC001B6803F40033002BF0D014E0FFF7A2FCB1
:10240C00386108E0FFF79EFC02463B69D31A642B47
:10241C0001D90323E6E1534B1B6803F40033002B73
:10242C00F0D100E000BF7B681B6803F00203002BB7
:10243C0063D04C4B5B6803F00C03002B0BD0494B67
:10244C005B6803F00C03082B1CD1464B5B6803F450
:10245C008033002B16D1434B1B6803F00203002B77
:10246C0005D07B681B69012B01D00123BAE13D4BE0
:10247C001B6823F0F8027B685B69DB003949134366
:10248C000B603AE07B681B69002B20D0364B012295
:10249C001A60FFF757FC386108E0FFF753FC02465F
:1024AC003B69D31A022B01D903239BE12D4B1B68EB
:1024BC0003F00203002BF0D02A4B1B6823F0F80228
:1024CC007B685B69DB00274913430B6015E0264BE7
:1024DC0000221A60FFF736FC386108E0FFF732FC87
:1024EC0002463B69D31A022B01D903237AE11D4B17
:1024FC001B6803F00203002BF0D17B681B6803F010
:10250C000803002B3AD07B689B69002B19D0174B22
:10251C0001221A60FFF716FC386108E0FFF712FC85
:10252C0002463B69D31A022B01D903235AE10D4B06
:10253C005B6A03F00203002BF0D0012000F09AFA42
:10254C001CE00A4B00221A60FFF7FCFB38610FE01D
:10255C00FFF7F8FB02463B69D31A022B08D9032379
:10256C0040E100BF001002400000424280044242A1
:10257C009E4B5B6A03F00203002BE9D17B681B685E
:10258C0003F00403002B00F0A6800023FB75974B8F
:10259C00DB6903F08053002B0DD1944BDB69934A1C
:1025AC0043F08053D361914BDB6903F08053BB60E4
:1025BC00BB680123FB758E4B1B6803F48073002BE7
:1025CC0018D18B4B1B688A4A43F480731360FFF756
:1025DC00B9FB386108E0FFF7B5FB02463B69D31A3B
:1025EC00642B01D90323FDE0814B1B6803F480733A
:1025FC00002BF0D07B68DB68012B06D17B4B1B6A70
:10260C007A4A43F0010313622DE07B68DB68002BF0
:10261C000CD1764B1B6A754A23F001031362734B82
:10262C001B6A724A23F0040313621CE07B68DB68AC
:10263C00052B0CD16D4B1B6A6C4A43F004031362DF
:10264C006A4B1B6A694A43F0010313620BE0674B48
:10265C001B6A664A23F001031362644B1B6A634ACC
:10266C0023F0040313627B68DB68002B15D0FFF7A3
:10267C0069FB38610AE0FFF765FB02463B69D31A38
:10268C0041F28832934201D90323ABE0574B1B6ACA
:10269C0003F00203002BEED014E0FFF753FB38617C
:1026AC000AE0FFF74FFB02463B69D31A41F288322E
:1026BC00934201D9032395E04C4B1B6A03F00203B0
:1026CC00002BEED1FB7D012B05D1484BDB69474A32
:1026DC0023F08053D3617B68DB69002B00F0818091
:1026EC00424B5B6803F00C03082B61D07B68DB6901
:1026FC00022B46D13F4B00221A60FFF723FB3861B7
:10270C0008E0FFF71FFB02463B69D31A022B01D9E5
:10271C00032367E0354B1B6803F00073002BF0D1EB
:10272C007B681B6AB3F5803F08D1304B5B6823F4A0
:10273C0000327B689B682D4913434B602B4B5B68C5
:10274C0023F474127B68196A7B685B6A0B43274914
:10275C0013434B60274B01221A60FFF7F3FA3861E1
:10276C0008E0FFF7EFFA02463B69D31A022B01D9B6
:10277C00032337E01D4B1B6803F00073002BF0D0D4
:10278C002FE01C4B00221A60FFF7DCFA386108E0DE
:10279C00FFF7D8FA02463B69D31A022B01D903235F
:1027AC0020E0124B1B6803F00073002BF0D118E0F3
:1027BC007B68DB69012B01D1012313E00B4B5B68B8
:1027CC00FB60FB6803F480327B681B6A9A4206D17B
:1027DC00FB6803F470127B685B6A9A4201D0012398
:1027EC0000E0002318461837BD4680BD001002409B
:1027FC00007000406000424280B584B000AF786049
:10280C0039607B68002B01D10123D0E06A4B1B6837
:10281C0003F007033A689A4210D9674B1B6823F000
:10282C00070265493B6813430B60634B1B6803F05D
:10283C0007033A689A4201D00123B8E07B681B6811
:10284C0003F00203002B20D07B681B6803F0040309
:10285C00002B05D0594B5B68584A43F4E063536036
:10286C007B681B6803F00803002B05D0534B5B6897
:10287C00524A43F460535360504B5B6823F0F002B0
:10288C007B689B684D4913434B607B681B6803F066
:10289C000103002B40D07B685B68012B07D1474BB1
:1028AC001B6803F40033002B15D101237FE07B68F8
:1028BC005B68022B07D1414B1B6803F00073002BA4
:1028CC0009D1012373E03D4B1B6803F00203002B7D
:1028DC0001D101236BE0394B5B6823F003027B6869
:1028EC005B68364913434B60FFF72CFAF8600AE03B
:1028FC00FFF728FA0246FB68D31A41F2883293425A
:10290C0001D9032353E02D4B5B6803F00C027B6869
:10291C005B689B009A42EBD1274B1B6803F00703C3
:10292C003A689A4210D2244B1B6823F007022249C2
:10293C003B6813430B60204B1B6803F007033A689A
:10294C009A4201D0012332E07B681B6803F0040338
:10295C00002B08D0194B5B6823F4E0627B68DB68C2
:10296C00164913434B607B681B6803F00803002B6C
:10297C0009D0124B5B6823F460527B681B69DB0047
:10298C000E4913434B6000F021F802460B4B5B6879
:10299C001B0903F00F030A49CB5C22FA03F3094A23
:1029AC001360094B1B681846FFF78AF90023184679
:1029BC001037BD4680BD00BF002002400010024011
:1029CC00E4320008440000204800002080B487B0A6
:1029DC0000AF0023FB600023BB6000237B6100235E
:1029EC007B6000233B611E4B5B68FB60FB6803F064
:1029FC000C03042B02D0082B03D027E0194B3B61AE
:102A0C0027E0FB689B0C03F00F03174AD35C7B6039
:102A1C00FB6803F48033002B10D0114B5B685B0C0C
:102A2C0003F00103114AD35CBB607B680D4A02FBC7
:102A3C0003F2BB68B2FBF3F37B6104E07B680C4AE6
:102A4C0002FB03F37B617B693B6102E0054B3B615D
:102A5C0000BF3B6918461C37BD4680BC704700BFA1
:102A6C000010024000127A00F4320008043300080F
:102A7C0000093D0080B485B000AF78600A4B1B683C
:102A8C000A4AA2FB03235B0A7A6802FB03F3FB608E
:102A9C0000BFFB685A1EFA60002BF9D100BF00BFC3
:102AAC001437BD4680BC704744000020D34D6210E3
:102ABC0080B582B000AF78607B68002B01D1012318
:102ACC0041E07B6893F83D30DBB2002B06D17B688C
:102ADC00002283F83C207868FFF75AF87B680222C2
:102AEC0083F83D207B681A687B68043319461046CE
:102AFC0000F056FA7B68012283F846207B6801229D
:102B0C0083F83E207B68012283F83F207B680122FA
:102B1C0083F840207B68012283F841207B680122E6
:102B2C0083F842207B68012283F843207B680122D2
:102B3C0083F844207B68012283F845207B680122BE
:102B4C0083F83D20002318460837BD4680BD0000A1
:102B5C0080B485B000AF78607B6893F83D30DBB211
:102B6C00012B01D0012335E07B68022283F83D2044
:102B7C007B681B68DA687B681B6842F00102DA60CC
:102B8C007B681B68164A934209D07B681B68B3F1BB
:102B9C00804F04D07B681B68124A934211D17B682A
:102BAC001B689B6803F00703FB60FB68062B10D0C7
:102BBC007B681B681A687B681B6842F001021A600C
:102BCC0007E07B681B681A687B681B6842F001028F
:102BDC001A60002318461437BD4680BC704700BFEE
:102BEC00002C01400004004080B584B000AF786038
:102BFC007B681B68DB68FB607B681B681B69BB60C0
:102C0C00BB6803F00203002B20D0FB6803F0020327
:102C1C00002B1BD07B681B686FF002021A617B686B
:102C2C0001221A777B681B689B6903F00303002B56
:102C3C0003D0786800F098F905E0786800F08BF91B
:102C4C00786800F09AF97B6800221A77BB6803F069
:102C5C000403002B20D0FB6803F00403002B1BD0D3
:102C6C007B681B686FF004021A617B6802221A777A
:102C7C007B681B689B6903F44073002B03D0786856
:102C8C0000F072F905E0786800F065F9786800F0FA
:102C9C0074F97B6800221A77BB6803F00803002BD9
:102CAC0020D0FB6803F00803002B1BD07B681B684B
:102CBC006FF008021A617B6804221A777B681B6824
:102CCC00DB6903F00303002B03D0786800F04CF9A8
:102CDC0005E0786800F03FF9786800F04EF97B6801
:102CEC0000221A77BB6803F01003002B20D0FB687E
:102CFC0003F01003002B1BD07B681B686FF01002D5
:102D0C001A617B6808221A777B681B68DB6903F4FD
:102D1C004073002B03D0786800F026F905E0786842
:102D2C0000F019F9786800F028F97B6800221A770E
:102D3C00BB6803F00103002B0CD0FB6803F001030C
:102D4C00002B07D07B681B686FF001021A61786852
:102D5C00FEF7A2FDBB6803F08003002B0CD0FB68D0
:102D6C0003F08003002B07D07B681B686FF0800298
:102D7C001A61786800F06FFABB6803F04003002B0F
:102D8C000CD0FB6803F04003002B07D07B681B685A
:102D9C006FF040021A61786800F0F8F8BB6803F035
:102DAC002003002B0CD0FB6803F02003002B07D072
:102DBC007B681B686FF020021A61786800F042FA99
:102DCC0000BF1037BD4680BD80B584B000AF7860C1
:102DDC0039600023FB737B6893F83C30012B01D1E5
:102DEC000223B4E07B68012283F83C207B6802223A
:102DFC0083F83D207B681B689B68BB60BB6823F035
:102E0C007703BB60BB6823F47F43BB607B681B68A4
:102E1C00BA689A603B681B68B3F5005F3ED0B3F5A7
:102E2C00005F00F28780B3F5805F00F08680B3F519
:102E3C00805F7FD8702B1AD0702B7BD8602B50D032
:102E4C00602B77D8502B3CD0502B73D8402B58D0BC
:102E5C00402B6FD8302B64D0302B6BD8202B60D00C
:102E6C00202B67D8002B5CD0102B5AD062E07B68EB
:102E7C0018683B6899683B685A683B68DB6800F0E7
:102E8C006AF97B681B689B68BB60BB6843F077037F
:102E9C00BB607B681B68BA689A604FE07B681868F7
:102EAC003B6899683B685A683B68DB6800F053F9EB
:102EBC007B681B689A687B681B6842F480429A6046
:102ECC003CE07B6818683B6859683B68DB681A46CD
:102EDC0000F0CAF87B681B685021184600F021F9F5
:102EEC002CE07B6818683B6859683B68DB681A46BD
:102EFC0000F0E8F87B681B686021184600F011F9B7
:102F0C001CE07B6818683B6859683B68DB681A46AC
:102F1C0000F0AAF87B681B684021184600F001F904
:102F2C000CE07B681A683B681B681946104600F079
:102F3C00F8F803E00123FB7300E000BF7B6801227B
:102F4C0083F83D207B68002283F83C20FB7B1846ED
:102F5C001037BD4680BD80B483B000AF786000BF31
:102F6C000C37BD4680BC704780B483B000AF78602E
:102F7C0000BF0C37BD4680BC704780B483B000AF37
:102F8C00786000BF0C37BD4680BC704780B483B0FE
:102F9C0000AF786000BF0C37BD4680BC70470000A6
:102FAC0080B485B000AF786039607B681B68FB60CB
:102FBC007B682B4A934207D07B68B3F1804F03D0D8
:102FCC007B68284A934208D1FB6823F07003FB60AE
:102FDC003B685B68FA681343FB607B68204A93424A
:102FEC0007D07B68B3F1804F03D07B681D4A9342B6
:102FFC0008D1FB6823F44073FB603B68DB68FA681C
:10300C001343FB60FB6823F080023B685B6913434E
:10301C00FB607B68FA681A603B689A687B68DA62C6
:10302C003B681A687B689A627B680D4A934203D1AD
:10303C003B681A697B681A637B6801225A617B685A
:10304C001B6903F00103002B05D07B681B6923F07F
:10305C0001027B681A6100BF1437BD4680BC704703
:10306C00002C01400004004080B487B000AFF86031
:10307C00B9607A60FB681B6A7B61FB681B6A23F092
:10308C000102FB681A62FB689B693B613B6923F098
:10309C00F0033B617B681B013A6913433B617B691D
:1030AC0023F00A037B617A69BB6813437B61FB687D
:1030BC003A699A61FB687A691A6200BF1C37BD468F
:1030CC0080BC704780B487B000AFF860B9607A609C
:1030DC00FB681B6A7B61FB681B6A23F01002FB68B0
:1030EC001A62FB689B693B613B6923F470433B614B
:1030FC007B681B033A6913433B617B6923F0A00394
:10310C007B61BB681B017A6913437B61FB683A697D
:10311C009A61FB687A691A6200BF1C37BD4680BC95
:10312C00704780B485B000AF786039607B689B686D
:10313C00FB60FB6823F07003FB603A68FB68134389
:10314C0043F00703FB607B68FA689A6000BF143792
:10315C00BD4680BC704780B487B000AFF860B960E2
:10316C007A603B60FB689B687B617B6923F47F43DF
:10317C007B613B681A027B681A43BB6813437A690C
:10318C0013437B61FB687A699A6000BF1C37BD46AC
:10319C0080BC704780B485B000AF786039607B68C4
:1031AC0093F83C30012B01D1022341E07B680122D2
:1031BC0083F83C207B68022283F83D207B681B68E7
:1031CC005B68FB607B681B689B68BB60FB6823F0DB
:1031DC007003FB603B681B68FA681343FB607B68F9
:1031EC001B68FA685A607B681B68144A934209D0C2
:1031FC007B681B68B3F1804F04D07B681B68104A56
:10320C0093420CD1BB6823F08003BB603B685B68C6
:10321C00BA681343BB607B681B68BA689A607B68AA
:10322C00012283F83D207B68002283F83C20002398
:10323C0018461437BD4680BC704700BF002C0140B7
:10324C000004004080B483B000AF786000BF0C373E
:10325C00BD4680BC704780B483B000AF786000BFBF
:10326C000C37BD4680BC704770B500260C4D0D4C1C
:10327C00641BA410A64209D100F022F800260A4DC6
:10328C000A4C641BA410A64205D170BD55F8043B32
:10329C0098470136EEE755F8043B98470136F2E7BC
:1032AC000833000808330008083300080C33000802
:1032BC0003460244934200D1704703F8011BF9E71F
:1032CC00F8B500BFF8BC08BC9E467047F8B500BF07
:0832DC00F8BC08BC9E467047D7
:1032E40000000000000000000102030406070809B2
:1032F40002030405060708090A0B0C0D0E0F101033
:0433040001020000C2
:043308003101000887
:04330C000D010008A7
:1033100001000000010000000100000001000000A9
:103320000100000001000000010000000100000099
:103330000100000001000000010000000100000089
:10334000C8000000040000000500000003000000A9
:103350000200000000127A001000000001000000CE
:0400000508001C557E
:00000001FF
